{
  "contractName": "EscrowSystem",
  "abi": [
    {
      "inputs": [],
      "stateMutability": "nonpayable",
      "type": "constructor"
    },
    {
      "anonymous": false,
      "inputs": [
        {
          "indexed": true,
          "internalType": "address",
          "name": "owner",
          "type": "address"
        },
        {
          "indexed": true,
          "internalType": "address",
          "name": "approved",
          "type": "address"
        },
        {
          "indexed": true,
          "internalType": "uint256",
          "name": "tokenId",
          "type": "uint256"
        }
      ],
      "name": "Approval",
      "type": "event"
    },
    {
      "anonymous": false,
      "inputs": [
        {
          "indexed": true,
          "internalType": "address",
          "name": "owner",
          "type": "address"
        },
        {
          "indexed": true,
          "internalType": "address",
          "name": "operator",
          "type": "address"
        },
        {
          "indexed": false,
          "internalType": "bool",
          "name": "approved",
          "type": "bool"
        }
      ],
      "name": "ApprovalForAll",
      "type": "event"
    },
    {
      "anonymous": false,
      "inputs": [
        {
          "indexed": true,
          "internalType": "address",
          "name": "seller",
          "type": "address"
        },
        {
          "indexed": true,
          "internalType": "address",
          "name": "buyer",
          "type": "address"
        },
        {
          "indexed": true,
          "internalType": "uint256",
          "name": "playerId",
          "type": "uint256"
        },
        {
          "indexed": false,
          "internalType": "uint256",
          "name": "amount",
          "type": "uint256"
        }
      ],
      "name": "BidAccepted",
      "type": "event"
    },
    {
      "anonymous": false,
      "inputs": [
        {
          "indexed": true,
          "internalType": "address",
          "name": "bidder",
          "type": "address"
        },
        {
          "indexed": true,
          "internalType": "uint256",
          "name": "playerId",
          "type": "uint256"
        },
        {
          "indexed": false,
          "internalType": "uint256",
          "name": "amount",
          "type": "uint256"
        }
      ],
      "name": "BidPlaced",
      "type": "event"
    },
    {
      "anonymous": false,
      "inputs": [
        {
          "indexed": true,
          "internalType": "address",
          "name": "seller",
          "type": "address"
        },
        {
          "indexed": true,
          "internalType": "address",
          "name": "buyer",
          "type": "address"
        },
        {
          "indexed": true,
          "internalType": "uint256",
          "name": "playerId",
          "type": "uint256"
        },
        {
          "indexed": false,
          "internalType": "uint256",
          "name": "amount",
          "type": "uint256"
        }
      ],
      "name": "BidRejected",
      "type": "event"
    },
    {
      "anonymous": false,
      "inputs": [
        {
          "indexed": true,
          "internalType": "address",
          "name": "club",
          "type": "address"
        }
      ],
      "name": "ClubRegistered",
      "type": "event"
    },
    {
      "anonymous": false,
      "inputs": [
        {
          "indexed": true,
          "internalType": "uint256",
          "name": "playerId",
          "type": "uint256"
        }
      ],
      "name": "PlayerPutOnSale",
      "type": "event"
    },
    {
      "anonymous": false,
      "inputs": [
        {
          "indexed": true,
          "internalType": "address",
          "name": "player",
          "type": "address"
        },
        {
          "indexed": true,
          "internalType": "uint256",
          "name": "playerId",
          "type": "uint256"
        }
      ],
      "name": "PlayerRegistered",
      "type": "event"
    },
    {
      "anonymous": false,
      "inputs": [
        {
          "indexed": true,
          "internalType": "address",
          "name": "player",
          "type": "address"
        }
      ],
      "name": "PlayerUnregistered",
      "type": "event"
    },
    {
      "anonymous": false,
      "inputs": [
        {
          "indexed": true,
          "internalType": "address",
          "name": "from",
          "type": "address"
        },
        {
          "indexed": true,
          "internalType": "address",
          "name": "to",
          "type": "address"
        },
        {
          "indexed": true,
          "internalType": "uint256",
          "name": "tokenId",
          "type": "uint256"
        }
      ],
      "name": "Transfer",
      "type": "event"
    },
    {
      "inputs": [
        {
          "internalType": "address",
          "name": "to",
          "type": "address"
        },
        {
          "internalType": "uint256",
          "name": "tokenId",
          "type": "uint256"
        }
      ],
      "name": "approve",
      "outputs": [],
      "stateMutability": "nonpayable",
      "type": "function"
    },
    {
      "inputs": [
        {
          "internalType": "address",
          "name": "owner",
          "type": "address"
        }
      ],
      "name": "balanceOf",
      "outputs": [
        {
          "internalType": "uint256",
          "name": "",
          "type": "uint256"
        }
      ],
      "stateMutability": "view",
      "type": "function"
    },
    {
      "inputs": [
        {
          "internalType": "uint256",
          "name": "",
          "type": "uint256"
        },
        {
          "internalType": "uint256",
          "name": "",
          "type": "uint256"
        }
      ],
      "name": "bids",
      "outputs": [
        {
          "internalType": "address",
          "name": "bidder",
          "type": "address"
        },
        {
          "internalType": "uint256",
          "name": "amount",
          "type": "uint256"
        },
        {
          "internalType": "enum EscrowSystem.BidState",
          "name": "bidStatus",
          "type": "uint8"
        }
      ],
      "stateMutability": "view",
      "type": "function"
    },
    {
      "inputs": [
        {
          "internalType": "uint256",
          "name": "tokenId",
          "type": "uint256"
        }
      ],
      "name": "getApproved",
      "outputs": [
        {
          "internalType": "address",
          "name": "",
          "type": "address"
        }
      ],
      "stateMutability": "view",
      "type": "function"
    },
    {
      "inputs": [
        {
          "internalType": "address",
          "name": "owner",
          "type": "address"
        },
        {
          "internalType": "address",
          "name": "operator",
          "type": "address"
        }
      ],
      "name": "isApprovedForAll",
      "outputs": [
        {
          "internalType": "bool",
          "name": "",
          "type": "bool"
        }
      ],
      "stateMutability": "view",
      "type": "function"
    },
    {
      "inputs": [],
      "name": "name",
      "outputs": [
        {
          "internalType": "string",
          "name": "",
          "type": "string"
        }
      ],
      "stateMutability": "view",
      "type": "function"
    },
    {
      "inputs": [],
      "name": "numPlayers",
      "outputs": [
        {
          "internalType": "uint256",
          "name": "",
          "type": "uint256"
        }
      ],
      "stateMutability": "view",
      "type": "function"
    },
    {
      "inputs": [],
      "name": "owner",
      "outputs": [
        {
          "internalType": "address",
          "name": "",
          "type": "address"
        }
      ],
      "stateMutability": "view",
      "type": "function"
    },
    {
      "inputs": [
        {
          "internalType": "uint256",
          "name": "tokenId",
          "type": "uint256"
        }
      ],
      "name": "ownerOf",
      "outputs": [
        {
          "internalType": "address",
          "name": "",
          "type": "address"
        }
      ],
      "stateMutability": "view",
      "type": "function"
    },
    {
      "inputs": [
        {
          "internalType": "uint256",
          "name": "",
          "type": "uint256"
        }
      ],
      "name": "playerAddress",
      "outputs": [
        {
          "internalType": "address",
          "name": "",
          "type": "address"
        }
      ],
      "stateMutability": "view",
      "type": "function"
    },
    {
      "inputs": [
        {
          "internalType": "uint256",
          "name": "",
          "type": "uint256"
        }
      ],
      "name": "playerOnSale",
      "outputs": [
        {
          "internalType": "bool",
          "name": "",
          "type": "bool"
        }
      ],
      "stateMutability": "view",
      "type": "function"
    },
    {
      "inputs": [
        {
          "internalType": "uint256",
          "name": "",
          "type": "uint256"
        }
      ],
      "name": "playerOwners",
      "outputs": [
        {
          "internalType": "address",
          "name": "",
          "type": "address"
        }
      ],
      "stateMutability": "view",
      "type": "function"
    },
    {
      "inputs": [
        {
          "internalType": "uint256",
          "name": "",
          "type": "uint256"
        }
      ],
      "name": "playerPrices",
      "outputs": [
        {
          "internalType": "uint256",
          "name": "",
          "type": "uint256"
        }
      ],
      "stateMutability": "view",
      "type": "function"
    },
    {
      "inputs": [
        {
          "internalType": "uint256",
          "name": "",
          "type": "uint256"
        }
      ],
      "name": "playerTransferred",
      "outputs": [
        {
          "internalType": "bool",
          "name": "",
          "type": "bool"
        }
      ],
      "stateMutability": "view",
      "type": "function"
    },
    {
      "inputs": [
        {
          "internalType": "address",
          "name": "",
          "type": "address"
        }
      ],
      "name": "registeredClubs",
      "outputs": [
        {
          "internalType": "bool",
          "name": "",
          "type": "bool"
        }
      ],
      "stateMutability": "view",
      "type": "function"
    },
    {
      "inputs": [
        {
          "internalType": "address",
          "name": "",
          "type": "address"
        }
      ],
      "name": "registeredPlayers",
      "outputs": [
        {
          "internalType": "bool",
          "name": "",
          "type": "bool"
        }
      ],
      "stateMutability": "view",
      "type": "function"
    },
    {
      "inputs": [
        {
          "internalType": "address",
          "name": "from",
          "type": "address"
        },
        {
          "internalType": "address",
          "name": "to",
          "type": "address"
        },
        {
          "internalType": "uint256",
          "name": "tokenId",
          "type": "uint256"
        }
      ],
      "name": "safeTransferFrom",
      "outputs": [],
      "stateMutability": "nonpayable",
      "type": "function"
    },
    {
      "inputs": [
        {
          "internalType": "address",
          "name": "from",
          "type": "address"
        },
        {
          "internalType": "address",
          "name": "to",
          "type": "address"
        },
        {
          "internalType": "uint256",
          "name": "tokenId",
          "type": "uint256"
        },
        {
          "internalType": "bytes",
          "name": "_data",
          "type": "bytes"
        }
      ],
      "name": "safeTransferFrom",
      "outputs": [],
      "stateMutability": "nonpayable",
      "type": "function"
    },
    {
      "inputs": [
        {
          "internalType": "address",
          "name": "operator",
          "type": "address"
        },
        {
          "internalType": "bool",
          "name": "approved",
          "type": "bool"
        }
      ],
      "name": "setApprovalForAll",
      "outputs": [],
      "stateMutability": "nonpayable",
      "type": "function"
    },
    {
      "inputs": [
        {
          "internalType": "bytes4",
          "name": "interfaceId",
          "type": "bytes4"
        }
      ],
      "name": "supportsInterface",
      "outputs": [
        {
          "internalType": "bool",
          "name": "",
          "type": "bool"
        }
      ],
      "stateMutability": "view",
      "type": "function"
    },
    {
      "inputs": [],
      "name": "symbol",
      "outputs": [
        {
          "internalType": "string",
          "name": "",
          "type": "string"
        }
      ],
      "stateMutability": "view",
      "type": "function"
    },
    {
      "inputs": [
        {
          "internalType": "uint256",
          "name": "tokenId",
          "type": "uint256"
        }
      ],
      "name": "tokenURI",
      "outputs": [
        {
          "internalType": "string",
          "name": "",
          "type": "string"
        }
      ],
      "stateMutability": "view",
      "type": "function"
    },
    {
      "inputs": [
        {
          "internalType": "address",
          "name": "from",
          "type": "address"
        },
        {
          "internalType": "address",
          "name": "to",
          "type": "address"
        },
        {
          "internalType": "uint256",
          "name": "tokenId",
          "type": "uint256"
        }
      ],
      "name": "transferFrom",
      "outputs": [],
      "stateMutability": "nonpayable",
      "type": "function"
    },
    {
      "inputs": [],
      "name": "registerClub",
      "outputs": [],
      "stateMutability": "nonpayable",
      "type": "function"
    },
    {
      "inputs": [
        {
          "internalType": "address",
          "name": "playerAdd",
          "type": "address"
        },
        {
          "internalType": "uint256",
          "name": "playerId",
          "type": "uint256"
        }
      ],
      "name": "registerPlayer",
      "outputs": [],
      "stateMutability": "nonpayable",
      "type": "function"
    },
    {
      "inputs": [
        {
          "internalType": "address",
          "name": "player",
          "type": "address"
        }
      ],
      "name": "unRegisterPlayer",
      "outputs": [],
      "stateMutability": "nonpayable",
      "type": "function"
    },
    {
      "inputs": [
        {
          "internalType": "uint256",
          "name": "playerId",
          "type": "uint256"
        }
      ],
      "name": "putPlayerOnSale",
      "outputs": [],
      "stateMutability": "nonpayable",
      "type": "function"
    },
    {
      "inputs": [
        {
          "internalType": "uint256",
          "name": "playerId",
          "type": "uint256"
        }
      ],
      "name": "placeBid",
      "outputs": [],
      "stateMutability": "payable",
      "type": "function"
    },
    {
      "inputs": [
        {
          "internalType": "uint256",
          "name": "playerId",
          "type": "uint256"
        },
        {
          "internalType": "address",
          "name": "buyer",
          "type": "address"
        },
        {
          "internalType": "uint256",
          "name": "amount",
          "type": "uint256"
        }
      ],
      "name": "acceptBid",
      "outputs": [],
      "stateMutability": "nonpayable",
      "type": "function"
    },
    {
      "inputs": [
        {
          "internalType": "uint256",
          "name": "playerId",
          "type": "uint256"
        },
        {
          "internalType": "address",
          "name": "buyer",
          "type": "address"
        },
        {
          "internalType": "uint256",
          "name": "amount",
          "type": "uint256"
        }
      ],
      "name": "rejectBid",
      "outputs": [],
      "stateMutability": "nonpayable",
      "type": "function"
    },
    {
      "inputs": [
        {
          "internalType": "address",
          "name": "bidder",
          "type": "address"
        },
        {
          "internalType": "uint256",
          "name": "playerId",
          "type": "uint256"
        },
        {
          "internalType": "uint256",
          "name": "amt",
          "type": "uint256"
        }
      ],
      "name": "findBidIndex",
      "outputs": [
        {
          "internalType": "uint256",
          "name": "",
          "type": "uint256"
        }
      ],
      "stateMutability": "view",
      "type": "function"
    },
    {
      "inputs": [
        {
          "internalType": "uint256",
          "name": "playerId",
          "type": "uint256"
        }
      ],
      "name": "getPlayerOwner",
      "outputs": [
        {
          "internalType": "address",
          "name": "",
          "type": "address"
        }
      ],
      "stateMutability": "view",
      "type": "function"
    },
    {
      "inputs": [
        {
          "internalType": "uint256",
          "name": "playerId",
          "type": "uint256"
        }
      ],
      "name": "getAllBids",
      "outputs": [
        {
          "components": [
            {
              "internalType": "address",
              "name": "bidder",
              "type": "address"
            },
            {
              "internalType": "uint256",
              "name": "amount",
              "type": "uint256"
            },
            {
              "internalType": "enum EscrowSystem.BidState",
              "name": "bidStatus",
              "type": "uint8"
            }
          ],
          "internalType": "struct EscrowSystem.Bid[]",
          "name": "",
          "type": "tuple[]"
        }
      ],
      "stateMutability": "view",
      "type": "function"
    }
  ],
  "bytecode": "0x60806040523480156200001157600080fd5b506040518060400160405280600d81526020017f536f6363657220506c61796572000000000000000000000000000000000000008152506040518060400160405280600281526020017f5350000000000000000000000000000000000000000000000000000000000000815250816000908051906020019062000096929190620000f9565b508060019080519060200190620000af929190620000f9565b50505033600660006101000a81548173ffffffffffffffffffffffffffffffffffffffff021916908373ffffffffffffffffffffffffffffffffffffffff1602179055506200020e565b8280546200010790620001a9565b90600052602060002090601f0160209004810192826200012b576000855562000177565b82601f106200014657805160ff191683800117855562000177565b8280016001018555821562000177579182015b828111156200017657825182559160200191906001019062000159565b5b5090506200018691906200018a565b5090565b5b80821115620001a55760008160009055506001016200018b565b5090565b60006002820490506001821680620001c257607f821691505b60208210811415620001d957620001d8620001df565b5b50919050565b7f4e487b7100000000000000000000000000000000000000000000000000000000600052602260045260246000fd5b61490d806200021e6000396000f3fe6080604052600436106101ee5760003560e01c806382dc22611161010d578063a528ff83116100a0578063c87b56dd1161006f578063c87b56dd14610784578063d6be9dca146107c1578063de0ba258146107d8578063e169e1ea14610815578063e985e9c51461083e576101ee565b8063a528ff83146106cc578063af8ee37f14610709578063b88d4fde14610732578063c7e776f71461075b576101ee565b806397b2f556116100dc57806397b2f556146106335780639979ef451461065e5780639aabe36d1461067a578063a22cb465146106a3576101ee565b806382dc2261146105775780638da5cb5b146105a057806395d89b41146105cb57806396b4f606146105f6576101ee565b806334429a471161018557806356c26f251161015457806356c26f25146104815780636352211e146104be57806370a08231146104fb5780637b3c4baa14610538576101ee565b806334429a47146103a157806342842e0e146103de578063483778a2146104075780634bafce2214610444576101ee565b8063095ea7b3116101c1578063095ea7b3146102d55780630c64592c146102fe578063181e40691461033b57806323b872dd14610378576101ee565b806301ffc9a7146101f357806303ff66f81461023057806306fdde031461026d578063081812fc14610298575b600080fd5b3480156101ff57600080fd5b5061021a600480360381019061021591906133e8565b61087b565b6040516102279190613ade565b60405180910390f35b34801561023c57600080fd5b506102576004803603810190610252919061343a565b61095d565b6040516102649190613ade565b60405180910390f35b34801561027957600080fd5b5061028261097d565b60405161028f9190613af9565b60405180910390f35b3480156102a457600080fd5b506102bf60048036038101906102ba919061343a565b610a0f565b6040516102cc9190613a1e565b60405180910390f35b3480156102e157600080fd5b506102fc60048036038101906102f7919061335d565b610a94565b005b34801561030a57600080fd5b506103256004803603810190610320919061343a565b610bac565b6040516103329190613a1e565b60405180910390f35b34801561034757600080fd5b50610362600480360381019061035d919061343a565b610bdf565b60405161036f9190613e1b565b60405180910390f35b34801561038457600080fd5b5061039f600480360381019061039a9190613257565b610bf7565b005b3480156103ad57600080fd5b506103c860048036038101906103c3919061343a565b610c57565b6040516103d59190613ade565b60405180910390f35b3480156103ea57600080fd5b5061040560048036038101906104009190613257565b610c77565b005b34801561041357600080fd5b5061042e60048036038101906104299190613399565b610c97565b60405161043b9190613e1b565b60405180910390f35b34801561045057600080fd5b5061046b600480360381019061046691906131f2565b610e11565b6040516104789190613ade565b60405180910390f35b34801561048d57600080fd5b506104a860048036038101906104a3919061343a565b610e31565b6040516104b59190613a1e565b60405180910390f35b3480156104ca57600080fd5b506104e560048036038101906104e0919061343a565b610e6e565b6040516104f29190613a1e565b60405180910390f35b34801561050757600080fd5b50610522600480360381019061051d91906131f2565b610f20565b60405161052f9190613e1b565b60405180910390f35b34801561054457600080fd5b5061055f600480360381019061055a91906134b2565b610fd8565b60405161056e93929190613a85565b60405180910390f35b34801561058357600080fd5b5061059e600480360381019061059991906131f2565b61104c565b005b3480156105ac57600080fd5b506105b56111db565b6040516105c29190613a1e565b60405180910390f35b3480156105d757600080fd5b506105e0611201565b6040516105ed9190613af9565b60405180910390f35b34801561060257600080fd5b5061061d6004803603810190610618919061343a565b611293565b60405161062a9190613a1e565b60405180910390f35b34801561063f57600080fd5b506106486112c6565b6040516106559190613e1b565b60405180910390f35b6106786004803603810190610673919061343a565b6112cc565b005b34801561068657600080fd5b506106a1600480360381019061069c919061335d565b611522565b005b3480156106af57600080fd5b506106ca60048036038101906106c59190613321565b611773565b005b3480156106d857600080fd5b506106f360048036038101906106ee919061343a565b611789565b6040516107009190613abc565b60405180910390f35b34801561071557600080fd5b50610730600480360381019061072b9190613463565b6118e2565b005b34801561073e57600080fd5b50610759600480360381019061075491906132a6565b611bc8565b005b34801561076757600080fd5b50610782600480360381019061077d9190613463565b611c2a565b005b34801561079057600080fd5b506107ab60048036038101906107a6919061343a565b611eb2565b6040516107b89190613af9565b60405180910390f35b3480156107cd57600080fd5b506107d6611f59565b005b3480156107e457600080fd5b506107ff60048036038101906107fa91906131f2565b611fb3565b60405161080c9190613ade565b60405180910390f35b34801561082157600080fd5b5061083c6004803603810190610837919061343a565b611fd3565b005b34801561084a57600080fd5b506108656004803603810190610860919061321b565b612162565b6040516108729190613ade565b60405180910390f35b60007f80ac58cd000000000000000000000000000000000000000000000000000000007bffffffffffffffffffffffffffffffffffffffffffffffffffffffff1916827bffffffffffffffffffffffffffffffffffffffffffffffffffffffff1916148061094657507f5b5e139f000000000000000000000000000000000000000000000000000000007bffffffffffffffffffffffffffffffffffffffffffffffffffffffff1916827bffffffffffffffffffffffffffffffffffffffffffffffffffffffff1916145b806109565750610955826121f6565b5b9050919050565b600c6020528060005260406000206000915054906101000a900460ff1681565b60606000805461098c906140c8565b80601f01602080910402602001604051908101604052809291908181526020018280546109b8906140c8565b8015610a055780601f106109da57610100808354040283529160200191610a05565b820191906000526020600020905b8154815290600101906020018083116109e857829003601f168201915b5050505050905090565b6000610a1a82612260565b610a59576040517f08c379a0000000000000000000000000000000000000000000000000000000008152600401610a5090613cdb565b60405180910390fd5b6004600083815260200190815260200160002060009054906101000a900473ffffffffffffffffffffffffffffffffffffffff169050919050565b6000610a9f82610e6e565b90508073ffffffffffffffffffffffffffffffffffffffff168373ffffffffffffffffffffffffffffffffffffffff161415610b10576040517f08c379a0000000000000000000000000000000000000000000000000000000008152600401610b0790613d7b565b60405180910390fd5b8073ffffffffffffffffffffffffffffffffffffffff16610b2f6122cc565b73ffffffffffffffffffffffffffffffffffffffff161480610b5e5750610b5d81610b586122cc565b612162565b5b610b9d576040517f08c379a0000000000000000000000000000000000000000000000000000000008152600401610b9490613c5b565b60405180910390fd5b610ba783836122d4565b505050565b60096020528060005260406000206000915054906101000a900473ffffffffffffffffffffffffffffffffffffffff1681565b600a6020528060005260406000206000915090505481565b610c08610c026122cc565b8261238d565b610c47576040517f08c379a0000000000000000000000000000000000000000000000000000000008152600401610c3e90613dbb565b60405180910390fd5b610c5283838361246b565b505050565b600d6020528060005260406000206000915054906101000a900460ff1681565b610c9283838360405180602001604052806000815250611bc8565b505050565b600080600e6000858152602001908152602001600020905060005b8180549050811015610dce578573ffffffffffffffffffffffffffffffffffffffff16828281548110610d0e577f4e487b7100000000000000000000000000000000000000000000000000000000600052603260045260246000fd5b906000526020600020906003020160000160009054906101000a900473ffffffffffffffffffffffffffffffffffffffff1673ffffffffffffffffffffffffffffffffffffffff16148015610dac575083828281548110610d98577f4e487b7100000000000000000000000000000000000000000000000000000000600052603260045260246000fd5b906000526020600020906003020160010154145b15610dbb578092505050610e0a565b8080610dc69061412b565b915050610cb2565b506040517f08c379a0000000000000000000000000000000000000000000000000000000008152600401610e0190613b9b565b60405180910390fd5b9392505050565b60086020528060005260406000206000915054906101000a900460ff1681565b6000600b600083815260200190815260200160002060009054906101000a900473ffffffffffffffffffffffffffffffffffffffff169050919050565b6000806002600084815260200190815260200160002060009054906101000a900473ffffffffffffffffffffffffffffffffffffffff169050600073ffffffffffffffffffffffffffffffffffffffff168173ffffffffffffffffffffffffffffffffffffffff161415610f17576040517f08c379a0000000000000000000000000000000000000000000000000000000008152600401610f0e90613c9b565b60405180910390fd5b80915050919050565b60008073ffffffffffffffffffffffffffffffffffffffff168273ffffffffffffffffffffffffffffffffffffffff161415610f91576040517f08c379a0000000000000000000000000000000000000000000000000000000008152600401610f8890613c7b565b60405180910390fd5b600360008373ffffffffffffffffffffffffffffffffffffffff1673ffffffffffffffffffffffffffffffffffffffff168152602001908152602001600020549050919050565b600e6020528160005260406000208181548110610ff457600080fd5b9060005260206000209060030201600091509150508060000160009054906101000a900473ffffffffffffffffffffffffffffffffffffffff16908060010154908060020160009054906101000a900460ff16905083565b600660009054906101000a900473ffffffffffffffffffffffffffffffffffffffff1673ffffffffffffffffffffffffffffffffffffffff163373ffffffffffffffffffffffffffffffffffffffff16146110dc576040517f08c379a00000000000000000000000000000000000000000000000000000000081526004016110d390613b1b565b60405180910390fd5b600860008273ffffffffffffffffffffffffffffffffffffffff1673ffffffffffffffffffffffffffffffffffffffff16815260200190815260200160002060009054906101000a900460ff16611168576040517f08c379a000000000000000000000000000000000000000000000000000000000815260040161115f90613d5b565b60405180910390fd5b600f600081548092919061117b9061409e565b91905055506000600860008373ffffffffffffffffffffffffffffffffffffffff1673ffffffffffffffffffffffffffffffffffffffff16815260200190815260200160002060006101000a81548160ff02191690831515021790555050565b600660009054906101000a900473ffffffffffffffffffffffffffffffffffffffff1681565b606060018054611210906140c8565b80601f016020809104026020016040519081016040528092919081815260200182805461123c906140c8565b80156112895780601f1061125e57610100808354040283529160200191611289565b820191906000526020600020905b81548152906001019060200180831161126c57829003601f168201915b5050505050905090565b600b6020528060005260406000206000915054906101000a900473ffffffffffffffffffffffffffffffffffffffff1681565b600f5481565b80600c600082815260200190815260200160002060009054906101000a900460ff1661132d576040517f08c379a000000000000000000000000000000000000000000000000000000000815260040161132490613d9b565b60405180910390fd5b600b600083815260200190815260200160002060009054906101000a900473ffffffffffffffffffffffffffffffffffffffff1673ffffffffffffffffffffffffffffffffffffffff163373ffffffffffffffffffffffffffffffffffffffff1614156113cf576040517f08c379a00000000000000000000000000000000000000000000000000000000081526004016113c690613dfb565b60405180910390fd5b600e600083815260200190815260200160002060405180606001604052803373ffffffffffffffffffffffffffffffffffffffff16815260200134815260200160006002811115611449577f4e487b7100000000000000000000000000000000000000000000000000000000600052602160045260246000fd5b815250908060018154018082558091505060019003906000526020600020906003020160009091909190915060008201518160000160006101000a81548173ffffffffffffffffffffffffffffffffffffffff021916908373ffffffffffffffffffffffffffffffffffffffff1602179055506020820151816001015560408201518160020160006101000a81548160ff02191690836002811115611517577f4e487b7100000000000000000000000000000000000000000000000000000000600052602160045260246000fd5b021790555050505050565b600860008373ffffffffffffffffffffffffffffffffffffffff1673ffffffffffffffffffffffffffffffffffffffff16815260200190815260200160002060009054906101000a900460ff16156115af576040517f08c379a00000000000000000000000000000000000000000000000000000000081526004016115a690613c1b565b60405180910390fd5b600073ffffffffffffffffffffffffffffffffffffffff166009600083815260200190815260200160002060009054906101000a900473ffffffffffffffffffffffffffffffffffffffff1673ffffffffffffffffffffffffffffffffffffffff1614611651576040517f08c379a000000000000000000000000000000000000000000000000000000000815260040161164890613cfb565b60405180910390fd5b6001600860008473ffffffffffffffffffffffffffffffffffffffff1673ffffffffffffffffffffffffffffffffffffffff16815260200190815260200160002060006101000a81548160ff021916908315150217905550600f60008154809291906116bc9061412b565b9190505550816009600083815260200190815260200160002060006101000a81548173ffffffffffffffffffffffffffffffffffffffff021916908373ffffffffffffffffffffffffffffffffffffffff16021790555033600b600083815260200190815260200160002060006101000a81548173ffffffffffffffffffffffffffffffffffffffff021916908373ffffffffffffffffffffffffffffffffffffffff16021790555061176f33826126c7565b5050565b61178561177e6122cc565b83836126e5565b5050565b6060600e6000838152602001908152602001600020805480602002602001604051908101604052809291908181526020016000905b828210156118d757838290600052602060002090600302016040518060600160405290816000820160009054906101000a900473ffffffffffffffffffffffffffffffffffffffff1673ffffffffffffffffffffffffffffffffffffffff1673ffffffffffffffffffffffffffffffffffffffff168152602001600182015481526020016002820160009054906101000a900460ff16600281111561188c577f4e487b7100000000000000000000000000000000000000000000000000000000600052602160045260246000fd5b60028111156118c4577f4e487b7100000000000000000000000000000000000000000000000000000000600052602160045260246000fd5b81525050815260200190600101906117be565b505050509050919050565b82600c600082815260200190815260200160002060009054906101000a900460ff16611943576040517f08c379a000000000000000000000000000000000000000000000000000000000815260040161193a90613d9b565b60405180910390fd5b83600b600082815260200190815260200160002060009054906101000a900473ffffffffffffffffffffffffffffffffffffffff1673ffffffffffffffffffffffffffffffffffffffff163373ffffffffffffffffffffffffffffffffffffffff16146119e5576040517f08c379a00000000000000000000000000000000000000000000000000000000081526004016119dc90613ddb565b60405180910390fd5b6000849050600033905060006119fc878988610c97565b90506001600e60008a81526020019081526020016000208281548110611a4b577f4e487b7100000000000000000000000000000000000000000000000000000000600052603260045260246000fd5b906000526020600020906003020160020160006101000a81548160ff02191690836002811115611aa4577f4e487b7100000000000000000000000000000000000000000000000000000000600052602160045260246000fd5b0217905550611ae7600b60008a815260200190815260200160002060009054906101000a900473ffffffffffffffffffffffffffffffffffffffff16848a610bf7565b60008614611b37578173ffffffffffffffffffffffffffffffffffffffff166108fc879081150290604051600060405180830381858888f19350505050158015611b35573d6000803e3d6000fd5b505b82600b60008a815260200190815260200160002060006101000a81548173ffffffffffffffffffffffffffffffffffffffff021916908373ffffffffffffffffffffffffffffffffffffffff1602179055506000600c60008a815260200190815260200160002060006101000a81548160ff021916908315150217905550611bbe88612852565b5050505050505050565b611bd9611bd36122cc565b8361238d565b611c18576040517f08c379a0000000000000000000000000000000000000000000000000000000008152600401611c0f90613dbb565b60405180910390fd5b611c2484848484612aab565b50505050565b82600c600082815260200190815260200160002060009054906101000a900460ff16611c8b576040517f08c379a0000000000000000000000000000000000000000000000000000000008152600401611c8290613d9b565b60405180910390fd5b83600b600082815260200190815260200160002060009054906101000a900473ffffffffffffffffffffffffffffffffffffffff1673ffffffffffffffffffffffffffffffffffffffff163373ffffffffffffffffffffffffffffffffffffffff1614611d2d576040517f08c379a0000000000000000000000000000000000000000000000000000000008152600401611d2490613ddb565b60405180910390fd5b6000611d3a858786610c97565b90506002600e60008881526020019081526020016000208281548110611d89577f4e487b7100000000000000000000000000000000000000000000000000000000600052603260045260246000fd5b906000526020600020906003020160020160006101000a81548160ff02191690836002811115611de2577f4e487b7100000000000000000000000000000000000000000000000000000000600052602160045260246000fd5b0217905550600e60008781526020019081526020016000208181548110611e32577f4e487b7100000000000000000000000000000000000000000000000000000000600052603260045260246000fd5b906000526020600020906003020160000160009054906101000a900473ffffffffffffffffffffffffffffffffffffffff1673ffffffffffffffffffffffffffffffffffffffff166108fc859081150290604051600060405180830381858888f19350505050158015611ea9573d6000803e3d6000fd5b50505050505050565b6060611ebd82612260565b611efc576040517f08c379a0000000000000000000000000000000000000000000000000000000008152600401611ef390613d3b565b60405180910390fd5b6000611f06612b07565b90506000815111611f265760405180602001604052806000815250611f51565b80611f3084612b1e565b604051602001611f419291906139fa565b6040516020818303038152906040525b915050919050565b6001600760003373ffffffffffffffffffffffffffffffffffffffff1673ffffffffffffffffffffffffffffffffffffffff16815260200190815260200160002060006101000a81548160ff021916908315150217905550565b60076020528060005260406000206000915054906101000a900460ff1681565b600860006009600084815260200190815260200160002060009054906101000a900473ffffffffffffffffffffffffffffffffffffffff1673ffffffffffffffffffffffffffffffffffffffff1673ffffffffffffffffffffffffffffffffffffffff16815260200190815260200160002060009054906101000a900460ff16612092576040517f08c379a000000000000000000000000000000000000000000000000000000000815260040161208990613bbb565b60405180910390fd5b600b600082815260200190815260200160002060009054906101000a900473ffffffffffffffffffffffffffffffffffffffff1673ffffffffffffffffffffffffffffffffffffffff163373ffffffffffffffffffffffffffffffffffffffff1614612133576040517f08c379a000000000000000000000000000000000000000000000000000000000815260040161212a90613b5b565b60405180910390fd5b6001600c600083815260200190815260200160002060006101000a81548160ff02191690831515021790555050565b6000600560008473ffffffffffffffffffffffffffffffffffffffff1673ffffffffffffffffffffffffffffffffffffffff16815260200190815260200160002060008373ffffffffffffffffffffffffffffffffffffffff1673ffffffffffffffffffffffffffffffffffffffff16815260200190815260200160002060009054906101000a900460ff16905092915050565b60007f01ffc9a7000000000000000000000000000000000000000000000000000000007bffffffffffffffffffffffffffffffffffffffffffffffffffffffff1916827bffffffffffffffffffffffffffffffffffffffffffffffffffffffff1916149050919050565b60008073ffffffffffffffffffffffffffffffffffffffff166002600084815260200190815260200160002060009054906101000a900473ffffffffffffffffffffffffffffffffffffffff1673ffffffffffffffffffffffffffffffffffffffff1614159050919050565b600033905090565b816004600083815260200190815260200160002060006101000a81548173ffffffffffffffffffffffffffffffffffffffff021916908373ffffffffffffffffffffffffffffffffffffffff160217905550808273ffffffffffffffffffffffffffffffffffffffff1661234783610e6e565b73ffffffffffffffffffffffffffffffffffffffff167f8c5be1e5ebec7d5bd14f71427d1e84f3dd0314c0f7b2291e5b200ac8c7c3b92560405160405180910390a45050565b600061239882612260565b6123d7576040517f08c379a00000000000000000000000000000000000000000000000000000000081526004016123ce90613c3b565b60405180910390fd5b60006123e283610e6e565b90508073ffffffffffffffffffffffffffffffffffffffff168473ffffffffffffffffffffffffffffffffffffffff16148061245157508373ffffffffffffffffffffffffffffffffffffffff1661243984610a0f565b73ffffffffffffffffffffffffffffffffffffffff16145b8061246257506124618185612162565b5b91505092915050565b8273ffffffffffffffffffffffffffffffffffffffff1661248b82610e6e565b73ffffffffffffffffffffffffffffffffffffffff16146124e1576040517f08c379a00000000000000000000000000000000000000000000000000000000081526004016124d890613d1b565b60405180910390fd5b600073ffffffffffffffffffffffffffffffffffffffff168273ffffffffffffffffffffffffffffffffffffffff161415612551576040517f08c379a000000000000000000000000000000000000000000000000000000000815260040161254890613bdb565b60405180910390fd5b61255c838383612ccb565b6125676000826122d4565b6001600360008573ffffffffffffffffffffffffffffffffffffffff1673ffffffffffffffffffffffffffffffffffffffff16815260200190815260200160002060008282546125b79190613f8f565b925050819055506001600360008473ffffffffffffffffffffffffffffffffffffffff1673ffffffffffffffffffffffffffffffffffffffff168152602001908152602001600020600082825461260e9190613f08565b92505081905550816002600083815260200190815260200160002060006101000a81548173ffffffffffffffffffffffffffffffffffffffff021916908373ffffffffffffffffffffffffffffffffffffffff160217905550808273ffffffffffffffffffffffffffffffffffffffff168473ffffffffffffffffffffffffffffffffffffffff167fddf252ad1be2c89b69c2b068fc378daa952ba7f163c4a11628f55a4df523b3ef60405160405180910390a4505050565b6126e1828260405180602001604052806000815250612cd0565b5050565b8173ffffffffffffffffffffffffffffffffffffffff168373ffffffffffffffffffffffffffffffffffffffff161415612754576040517f08c379a000000000000000000000000000000000000000000000000000000000815260040161274b90613bfb565b60405180910390fd5b80600560008573ffffffffffffffffffffffffffffffffffffffff1673ffffffffffffffffffffffffffffffffffffffff16815260200190815260200160002060008473ffffffffffffffffffffffffffffffffffffffff1673ffffffffffffffffffffffffffffffffffffffff16815260200190815260200160002060006101000a81548160ff0219169083151502179055508173ffffffffffffffffffffffffffffffffffffffff168373ffffffffffffffffffffffffffffffffffffffff167f17307eab39ab6107e8899845ad3d59bd9653f200f220920489ca2b5937696c31836040516128459190613ade565b60405180910390a3505050565b60005b600e600083815260200190815260200160002080549050811015612a8857600060028111156128ad577f4e487b7100000000000000000000000000000000000000000000000000000000600052602160045260246000fd5b600e600084815260200190815260200160002082815481106128f8577f4e487b7100000000000000000000000000000000000000000000000000000000600052603260045260246000fd5b906000526020600020906003020160020160009054906101000a900460ff16600281111561294f577f4e487b7100000000000000000000000000000000000000000000000000000000600052602160045260246000fd5b1415612a7557600e600083815260200190815260200160002081815481106129a0577f4e487b7100000000000000000000000000000000000000000000000000000000600052603260045260246000fd5b906000526020600020906003020160000160009054906101000a900473ffffffffffffffffffffffffffffffffffffffff1673ffffffffffffffffffffffffffffffffffffffff166108fc600e60008581526020019081526020016000208381548110612a36577f4e487b7100000000000000000000000000000000000000000000000000000000600052603260045260246000fd5b9060005260206000209060030201600101549081150290604051600060405180830381858888f19350505050158015612a73573d6000803e3d6000fd5b505b8080612a809061412b565b915050612855565b50600e60008281526020019081526020016000206000612aa891906130a3565b50565b612ab684848461246b565b612ac284848484612d2b565b612b01576040517f08c379a0000000000000000000000000000000000000000000000000000000008152600401612af890613b3b565b60405180910390fd5b50505050565b606060405180602001604052806000815250905090565b60606000821415612b66576040518060400160405280600181526020017f30000000000000000000000000000000000000000000000000000000000000008152509050612cc6565b600082905060005b60008214612b98578080612b819061412b565b915050600a82612b919190613f5e565b9150612b6e565b60008167ffffffffffffffff811115612bda577f4e487b7100000000000000000000000000000000000000000000000000000000600052604160045260246000fd5b6040519080825280601f01601f191660200182016040528015612c0c5781602001600182028036833780820191505090505b5090505b60008514612cbf57600182612c259190613f8f565b9150600a85612c349190614174565b6030612c409190613f08565b60f81b818381518110612c7c577f4e487b7100000000000000000000000000000000000000000000000000000000600052603260045260246000fd5b60200101907effffffffffffffffffffffffffffffffffffffffffffffffffffffffffffff1916908160001a905350600a85612cb89190613f5e565b9450612c10565b8093505050505b919050565b505050565b612cda8383612ec2565b612ce76000848484612d2b565b612d26576040517f08c379a0000000000000000000000000000000000000000000000000000000008152600401612d1d90613b3b565b60405180910390fd5b505050565b6000612d4c8473ffffffffffffffffffffffffffffffffffffffff16613090565b15612eb5578373ffffffffffffffffffffffffffffffffffffffff1663150b7a02612d756122cc565b8786866040518563ffffffff1660e01b8152600401612d979493929190613a39565b602060405180830381600087803b158015612db157600080fd5b505af1925050508015612de257506040513d601f19601f82011682018060405250810190612ddf9190613411565b60015b612e65573d8060008114612e12576040519150601f19603f3d011682016040523d82523d6000602084013e612e17565b606091505b50600081511415612e5d576040517f08c379a0000000000000000000000000000000000000000000000000000000008152600401612e5490613b3b565b60405180910390fd5b805181602001fd5b63150b7a0260e01b7bffffffffffffffffffffffffffffffffffffffffffffffffffffffff1916817bffffffffffffffffffffffffffffffffffffffffffffffffffffffff191614915050612eba565b600190505b949350505050565b600073ffffffffffffffffffffffffffffffffffffffff168273ffffffffffffffffffffffffffffffffffffffff161415612f32576040517f08c379a0000000000000000000000000000000000000000000000000000000008152600401612f2990613cbb565b60405180910390fd5b612f3b81612260565b15612f7b576040517f08c379a0000000000000000000000000000000000000000000000000000000008152600401612f7290613b7b565b60405180910390fd5b612f8760008383612ccb565b6001600360008473ffffffffffffffffffffffffffffffffffffffff1673ffffffffffffffffffffffffffffffffffffffff1681526020019081526020016000206000828254612fd79190613f08565b92505081905550816002600083815260200190815260200160002060006101000a81548173ffffffffffffffffffffffffffffffffffffffff021916908373ffffffffffffffffffffffffffffffffffffffff160217905550808273ffffffffffffffffffffffffffffffffffffffff16600073ffffffffffffffffffffffffffffffffffffffff167fddf252ad1be2c89b69c2b068fc378daa952ba7f163c4a11628f55a4df523b3ef60405160405180910390a45050565b600080823b905060008111915050919050565b50805460008255600302906000526020600020908101906130c491906130c7565b50565b5b8082111561311d57600080820160006101000a81549073ffffffffffffffffffffffffffffffffffffffff021916905560018201600090556002820160006101000a81549060ff0219169055506003016130c8565b5090565b600061313461312f84613e5b565b613e36565b90508281526020810184848401111561314c57600080fd5b61315784828561405c565b509392505050565b60008135905061316e8161487b565b92915050565b60008135905061318381614892565b92915050565b600081359050613198816148a9565b92915050565b6000815190506131ad816148a9565b92915050565b600082601f8301126131c457600080fd5b81356131d4848260208601613121565b91505092915050565b6000813590506131ec816148c0565b92915050565b60006020828403121561320457600080fd5b60006132128482850161315f565b91505092915050565b6000806040838503121561322e57600080fd5b600061323c8582860161315f565b925050602061324d8582860161315f565b9150509250929050565b60008060006060848603121561326c57600080fd5b600061327a8682870161315f565b935050602061328b8682870161315f565b925050604061329c868287016131dd565b9150509250925092565b600080600080608085870312156132bc57600080fd5b60006132ca8782880161315f565b94505060206132db8782880161315f565b93505060406132ec878288016131dd565b925050606085013567ffffffffffffffff81111561330957600080fd5b613315878288016131b3565b91505092959194509250565b6000806040838503121561333457600080fd5b60006133428582860161315f565b925050602061335385828601613174565b9150509250929050565b6000806040838503121561337057600080fd5b600061337e8582860161315f565b925050602061338f858286016131dd565b9150509250929050565b6000806000606084860312156133ae57600080fd5b60006133bc8682870161315f565b93505060206133cd868287016131dd565b92505060406133de868287016131dd565b9150509250925092565b6000602082840312156133fa57600080fd5b600061340884828501613189565b91505092915050565b60006020828403121561342357600080fd5b60006134318482850161319e565b91505092915050565b60006020828403121561344c57600080fd5b600061345a848285016131dd565b91505092915050565b60008060006060848603121561347857600080fd5b6000613486868287016131dd565b93505060206134978682870161315f565b92505060406134a8868287016131dd565b9150509250925092565b600080604083850312156134c557600080fd5b60006134d3858286016131dd565b92505060206134e4858286016131dd565b9150509250929050565b60006134fa838361399a565b60608301905092915050565b61350f81613fc3565b82525050565b61351e81613fc3565b82525050565b600061352f82613e9c565b6135398185613eca565b935061354483613e8c565b8060005b8381101561357557815161355c88826134ee565b975061356783613ebd565b925050600181019050613548565b5085935050505092915050565b61358b81613fd5565b82525050565b600061359c82613ea7565b6135a68185613edb565b93506135b681856020860161406b565b6135bf81614290565b840191505092915050565b6135d38161404a565b82525050565b6135e28161404a565b82525050565b60006135f382613eb2565b6135fd8185613eec565b935061360d81856020860161406b565b61361681614290565b840191505092915050565b600061362c82613eb2565b6136368185613efd565b935061364681856020860161406b565b80840191505092915050565b600061365f602b83613eec565b915061366a826142a1565b604082019050919050565b6000613682603283613eec565b915061368d826142f0565b604082019050919050565b60006136a5602583613eec565b91506136b08261433f565b604082019050919050565b60006136c8601c83613eec565b91506136d38261438e565b602082019050919050565b60006136eb600d83613eec565b91506136f6826143b7565b602082019050919050565b600061370e601683613eec565b9150613719826143e0565b602082019050919050565b6000613731602483613eec565b915061373c82614409565b604082019050919050565b6000613754601983613eec565b915061375f82614458565b602082019050919050565b6000613777601a83613eec565b915061378282614481565b602082019050919050565b600061379a602c83613eec565b91506137a5826144aa565b604082019050919050565b60006137bd603883613eec565b91506137c8826144f9565b604082019050919050565b60006137e0602a83613eec565b91506137eb82614548565b604082019050919050565b6000613803602983613eec565b915061380e82614597565b604082019050919050565b6000613826602083613eec565b9150613831826145e6565b602082019050919050565b6000613849602c83613eec565b91506138548261460f565b604082019050919050565b600061386c601183613eec565b91506138778261465e565b602082019050919050565b600061388f602983613eec565b915061389a82614687565b604082019050919050565b60006138b2602f83613eec565b91506138bd826146d6565b604082019050919050565b60006138d5601883613eec565b91506138e082614725565b602082019050919050565b60006138f8602183613eec565b91506139038261474e565b604082019050919050565b600061391b601b83613eec565b91506139268261479d565b602082019050919050565b600061393e603183613eec565b9150613949826147c6565b604082019050919050565b6000613961601783613eec565b915061396c82614815565b602082019050919050565b6000613984601b83613eec565b915061398f8261483e565b602082019050919050565b6060820160008201516139b06000850182613506565b5060208201516139c360208501826139dc565b5060408201516139d660408501826135ca565b50505050565b6139e581614040565b82525050565b6139f481614040565b82525050565b6000613a068285613621565b9150613a128284613621565b91508190509392505050565b6000602082019050613a336000830184613515565b92915050565b6000608082019050613a4e6000830187613515565b613a5b6020830186613515565b613a6860408301856139eb565b8181036060830152613a7a8184613591565b905095945050505050565b6000606082019050613a9a6000830186613515565b613aa760208301856139eb565b613ab460408301846135d9565b949350505050565b60006020820190508181036000830152613ad68184613524565b905092915050565b6000602082019050613af36000830184613582565b92915050565b60006020820190508181036000830152613b1381846135e8565b905092915050565b60006020820190508181036000830152613b3481613652565b9050919050565b60006020820190508181036000830152613b5481613675565b9050919050565b60006020820190508181036000830152613b7481613698565b9050919050565b60006020820190508181036000830152613b94816136bb565b9050919050565b60006020820190508181036000830152613bb4816136de565b9050919050565b60006020820190508181036000830152613bd481613701565b9050919050565b60006020820190508181036000830152613bf481613724565b9050919050565b60006020820190508181036000830152613c1481613747565b9050919050565b60006020820190508181036000830152613c348161376a565b9050919050565b60006020820190508181036000830152613c548161378d565b9050919050565b60006020820190508181036000830152613c74816137b0565b9050919050565b60006020820190508181036000830152613c94816137d3565b9050919050565b60006020820190508181036000830152613cb4816137f6565b9050919050565b60006020820190508181036000830152613cd481613819565b9050919050565b60006020820190508181036000830152613cf48161383c565b9050919050565b60006020820190508181036000830152613d148161385f565b9050919050565b60006020820190508181036000830152613d3481613882565b9050919050565b60006020820190508181036000830152613d54816138a5565b9050919050565b60006020820190508181036000830152613d74816138c8565b9050919050565b60006020820190508181036000830152613d94816138eb565b9050919050565b60006020820190508181036000830152613db48161390e565b9050919050565b60006020820190508181036000830152613dd481613931565b9050919050565b60006020820190508181036000830152613df481613954565b9050919050565b60006020820190508181036000830152613e1481613977565b9050919050565b6000602082019050613e3060008301846139eb565b92915050565b6000613e40613e51565b9050613e4c82826140fa565b919050565b6000604051905090565b600067ffffffffffffffff821115613e7657613e75614261565b5b613e7f82614290565b9050602081019050919050565b6000819050602082019050919050565b600081519050919050565b600081519050919050565b600081519050919050565b6000602082019050919050565b600082825260208201905092915050565b600082825260208201905092915050565b600082825260208201905092915050565b600081905092915050565b6000613f1382614040565b9150613f1e83614040565b9250827fffffffffffffffffffffffffffffffffffffffffffffffffffffffffffffffff03821115613f5357613f526141a5565b5b828201905092915050565b6000613f6982614040565b9150613f7483614040565b925082613f8457613f836141d4565b5b828204905092915050565b6000613f9a82614040565b9150613fa583614040565b925082821015613fb857613fb76141a5565b5b828203905092915050565b6000613fce82614020565b9050919050565b60008115159050919050565b60007fffffffff0000000000000000000000000000000000000000000000000000000082169050919050565b600081905061401b82614867565b919050565b600073ffffffffffffffffffffffffffffffffffffffff82169050919050565b6000819050919050565b60006140558261400d565b9050919050565b82818337600083830152505050565b60005b8381101561408957808201518184015260208101905061406e565b83811115614098576000848401525b50505050565b60006140a982614040565b915060008214156140bd576140bc6141a5565b5b600182039050919050565b600060028204905060018216806140e057607f821691505b602082108114156140f4576140f3614232565b5b50919050565b61410382614290565b810181811067ffffffffffffffff8211171561412257614121614261565b5b80604052505050565b600061413682614040565b91507fffffffffffffffffffffffffffffffffffffffffffffffffffffffffffffffff821415614169576141686141a5565b5b600182019050919050565b600061417f82614040565b915061418a83614040565b92508261419a576141996141d4565b5b828206905092915050565b7f4e487b7100000000000000000000000000000000000000000000000000000000600052601160045260246000fd5b7f4e487b7100000000000000000000000000000000000000000000000000000000600052601260045260246000fd5b7f4e487b7100000000000000000000000000000000000000000000000000000000600052602160045260246000fd5b7f4e487b7100000000000000000000000000000000000000000000000000000000600052602260045260246000fd5b7f4e487b7100000000000000000000000000000000000000000000000000000000600052604160045260246000fd5b6000601f19601f8301169050919050565b7f4f6e6c7920636f6e7472616374206f776e65722063616e2063616c6c2074686960008201527f732066756e6374696f6e2e000000000000000000000000000000000000000000602082015250565b7f4552433732313a207472616e7366657220746f206e6f6e20455243373231526560008201527f63656976657220696d706c656d656e7465720000000000000000000000000000602082015250565b7f596f7520617265206e6f7420746865206f776e6572206f66207468697320706c60008201527f617965722e000000000000000000000000000000000000000000000000000000602082015250565b7f4552433732313a20746f6b656e20616c7265616479206d696e74656400000000600082015250565b7f426964206e6f7420666f756e6400000000000000000000000000000000000000600082015250565b7f506c61796572206e6f7420726567697374657265642e00000000000000000000600082015250565b7f4552433732313a207472616e7366657220746f20746865207a65726f2061646460008201527f7265737300000000000000000000000000000000000000000000000000000000602082015250565b7f4552433732313a20617070726f766520746f2063616c6c657200000000000000600082015250565b7f506c6179657220616c726561647920726567697374657265642e000000000000600082015250565b7f4552433732313a206f70657261746f7220717565727920666f72206e6f6e657860008201527f697374656e7420746f6b656e0000000000000000000000000000000000000000602082015250565b7f4552433732313a20617070726f76652063616c6c6572206973206e6f74206f7760008201527f6e6572206e6f7220617070726f76656420666f7220616c6c0000000000000000602082015250565b7f4552433732313a2062616c616e636520717565727920666f7220746865207a6560008201527f726f206164647265737300000000000000000000000000000000000000000000602082015250565b7f4552433732313a206f776e657220717565727920666f72206e6f6e657869737460008201527f656e7420746f6b656e0000000000000000000000000000000000000000000000602082015250565b7f4552433732313a206d696e7420746f20746865207a65726f2061646472657373600082015250565b7f4552433732313a20617070726f76656420717565727920666f72206e6f6e657860008201527f697374656e7420746f6b656e0000000000000000000000000000000000000000602082015250565b7f4b657920616c7265616479206578697374000000000000000000000000000000600082015250565b7f4552433732313a207472616e73666572206f6620746f6b656e2074686174206960008201527f73206e6f74206f776e0000000000000000000000000000000000000000000000602082015250565b7f4552433732314d657461646174613a2055524920717565727920666f72206e6f60008201527f6e6578697374656e7420746f6b656e0000000000000000000000000000000000602082015250565b7f204e6f742061207265676973746572656420706c617965720000000000000000600082015250565b7f4552433732313a20617070726f76616c20746f2063757272656e74206f776e6560008201527f7200000000000000000000000000000000000000000000000000000000000000602082015250565b7f5468697320706c61796572206973206e6f74206f6e2073616c652e0000000000600082015250565b7f4552433732313a207472616e736665722063616c6c6572206973206e6f74206f60008201527f776e6572206e6f7220617070726f766564000000000000000000000000000000602082015250565b7f4e6f74206f776e6572206f662074686520706c61796572000000000000000000600082015250565b7f506c61796572206f776e65722063616e7420706c616365206269640000000000600082015250565b6003811061487857614877614203565b5b50565b61488481613fc3565b811461488f57600080fd5b50565b61489b81613fd5565b81146148a657600080fd5b50565b6148b281613fe1565b81146148bd57600080fd5b50565b6148c981614040565b81146148d457600080fd5b5056fea2646970667358221220cce25a890b8a86a3e97e3be3a9a822a26922943ff372b351f62c66e56910ce3964736f6c63430008010033",
  "immutableReferences": {},
  "source": "// SPDX-License-Identifier: MIT\npragma solidity ^0.8.0;\n\nimport \"@openzeppelin/contracts/token/ERC721/ERC721.sol\";\n\ncontract EscrowSystem is ERC721 {\n\nenum BidState {Bidded, Accepted, Rejected}\n\nevent ClubRegistered(address indexed club);\nevent PlayerRegistered(address indexed player, uint256 indexed playerId);\nevent PlayerUnregistered(address indexed player);\nevent PlayerPutOnSale(uint256 indexed playerId);\nevent BidPlaced(address indexed bidder, uint256 indexed playerId, uint256 amount);\nevent BidAccepted(address indexed seller, address indexed buyer, uint256 indexed playerId, uint256 amount);\nevent BidRejected(address indexed seller, address indexed buyer, uint256 indexed playerId, uint256 amount);\n\n\n\naddress public owner;\nmapping(address => bool) public registeredClubs;\nmapping(address => bool) public registeredPlayers;\nmapping(uint256 => address) public playerAddress;\nmapping(uint256 => uint256) public playerPrices;\nmapping(uint256 => address) public playerOwners;\nmapping(uint256 => bool) public playerOnSale;\nmapping(uint256 => bool) public playerTransferred;\nmapping(uint256 => Bid[]) public bids;\nuint256 public numPlayers;\n\nstruct Bid {\n    address bidder;\n    uint256 amount;\n    BidState bidStatus; \n}\n\nconstructor() ERC721(\"Soccer Player\", \"SP\") {\n    owner = msg.sender;\n}\n\n\n\nmodifier onlyOwner() {\n    require(msg.sender == owner, \"Only contract owner can call this function.\");\n    _;\n}\n\nmodifier onlyClub() {\n    require(registeredClubs[msg.sender], \"Only registered clubs can call this function.\");\n    _;\n}\n\nmodifier onlyPlayer() {\n    require(registeredPlayers[msg.sender], \"Only registered players can call this function.\");\n    _;\n}\n\nmodifier onlyPlayerOnSale(uint256 playerId) {\n    require(playerOnSale[playerId], \"This player is not on sale.\");\n    _;\n}\n\nmodifier onlyPlayerOrClub(uint256 playerId) {\n    require(registeredPlayers[msg.sender] || registeredClubs[msg.sender], \n    \"This player is not on sale.\");\n    _;\n}\n\nmodifier onlyPlayerNotTransferred(uint256 playerId) {\n    require(!playerTransferred[playerId], \"This player has already been transferred.\");\n    _;\n}\n\nmodifier onlyOwnerOf(uint256 playerId) {\n    require(msg.sender == playerOwners[playerId], \"Not owner of the player\");\n    _;\n}\n\nfunction registerClub() external {\n    registeredClubs[msg.sender] = true;\n}\n\nfunction registerPlayer(address playerAdd, uint256 playerId) external  {\n    require(!registeredPlayers[playerAdd], \"Player already registered.\");\n    require(playerAddress[playerId] == address(0), \"Key already exist\");\n    registeredPlayers[playerAdd] = true;\n    numPlayers++;\n    playerAddress[playerId] = playerAdd;\n    playerOwners[playerId] = msg.sender;\n    _safeMint(msg.sender, playerId);\n}\n\nfunction unRegisterPlayer(address player) external onlyOwner  {\n    require(registeredPlayers[player] ,\" Not a registered player\");\n    numPlayers--;\n    registeredPlayers[player] = false;\n}\n\nfunction putPlayerOnSale(uint256 playerId) external  {\n    require(registeredPlayers[playerAddress[playerId]], \"Player not registered.\");\n    require(msg.sender == playerOwners[playerId], \"You are not the owner of this player.\");\n    playerOnSale[playerId] = true;\n}\n\nfunction placeBid(uint256 playerId) external payable onlyPlayerOnSale(playerId) {\n    require(msg.sender != playerOwners[playerId], \"Player owner cant place bid\");\n    bids[playerId].push(Bid(msg.sender, msg.value, BidState.Bidded));\n}\n\nfunction acceptBid(uint256 playerId, address buyer, uint256 amount) external  onlyPlayerOnSale(playerId) onlyOwnerOf(playerId) {\n    address payable buyerAdd = payable(address(buyer));\n    address seller = msg.sender;\n    uint256 bidIndex = findBidIndex(buyer, playerId, amount);\n    bids[playerId][bidIndex].bidStatus = BidState.Accepted;\n    transferFrom(playerOwners[playerId], buyerAdd, playerId);\n    if(amount != 0) {\n     payable(seller).transfer(amount);\n    }\n    playerOwners[playerId] = buyerAdd;\n    playerOnSale[playerId] = false;\n    sendRefundtoAddresses(playerId);\n}\n\nfunction rejectBid(uint256 playerId, address buyer, uint256 amount) external onlyPlayerOnSale(playerId) onlyOwnerOf(playerId) {\n    uint256 bidIndex = findBidIndex(buyer, playerId, amount);\n    bids[playerId][bidIndex].bidStatus = BidState.Rejected;\n    payable(bids[playerId][bidIndex].bidder).transfer(amount);\n}   \n\n\nfunction findBidIndex(address bidder, uint256 playerId, uint256 amt) public view returns (uint256) {\n    Bid[] storage bidList = bids[playerId];\n    for (uint256 i = 0; i < bidList.length; i++) {\n        if (bidList[i].bidder == bidder && bidList[i].amount == amt) {\n            return i;\n        }\n    }\n    revert(\"Bid not found\");\n}\n\n\n\n\n    function sendRefundtoAddresses(uint256 playerId) internal {\n        for (uint i = 0; i < bids[playerId].length; i++) {\n            if( bids[playerId][i].bidStatus == BidState.Bidded)\n            payable(bids[playerId][i].bidder).transfer(bids[playerId][i].amount);\n        }\n        delete bids[playerId];\n    }\n\n\n    function getPlayerOwner(uint256 playerId) external view returns (address) {\n        return playerOwners[playerId];\n    }\n\n    function getAllBids(uint256 playerId) public view returns (Bid[] memory) {\n        return bids[playerId];\n    }\n    \n    \n   \n\n    \n}",
  "sourcePath": "/Users/swami/Documents/UB Docs/Asst/Spring 23/Blockchain/soccer-transfer-market/soccer-transfer-market-contract/contracts/PlayerAuction.sol",
  "compiler": {
    "name": "solc",
    "version": "0.8.1+commit.df193b15.Emscripten.clang"
  },
  "schemaVersion": "3.4.13",
  "updatedAt": "2023-04-27T14:19:22.180Z",
  "devdoc": {
    "kind": "dev",
    "methods": {
      "approve(address,uint256)": {
        "details": "See {IERC721-approve}."
      },
      "balanceOf(address)": {
        "details": "See {IERC721-balanceOf}."
      },
      "getApproved(uint256)": {
        "details": "See {IERC721-getApproved}."
      },
      "isApprovedForAll(address,address)": {
        "details": "See {IERC721-isApprovedForAll}."
      },
      "name()": {
        "details": "See {IERC721Metadata-name}."
      },
      "ownerOf(uint256)": {
        "details": "See {IERC721-ownerOf}."
      },
      "safeTransferFrom(address,address,uint256)": {
        "details": "See {IERC721-safeTransferFrom}."
      },
      "safeTransferFrom(address,address,uint256,bytes)": {
        "details": "See {IERC721-safeTransferFrom}."
      },
      "setApprovalForAll(address,bool)": {
        "details": "See {IERC721-setApprovalForAll}."
      },
      "supportsInterface(bytes4)": {
        "details": "See {IERC165-supportsInterface}."
      },
      "symbol()": {
        "details": "See {IERC721Metadata-symbol}."
      },
      "tokenURI(uint256)": {
        "details": "See {IERC721Metadata-tokenURI}."
      },
      "transferFrom(address,address,uint256)": {
        "details": "See {IERC721-transferFrom}."
      }
    },
    "version": 1
  },
  "userdoc": {
    "kind": "user",
    "methods": {},
    "version": 1
  }
}