{
  "contractName": "PlayerNFT",
  "abi": [
    {
      "inputs": [],
      "stateMutability": "nonpayable",
      "type": "constructor"
    },
    {
      "anonymous": false,
      "inputs": [
        {
          "indexed": true,
          "internalType": "address",
          "name": "owner",
          "type": "address"
        },
        {
          "indexed": true,
          "internalType": "address",
          "name": "approved",
          "type": "address"
        },
        {
          "indexed": true,
          "internalType": "uint256",
          "name": "tokenId",
          "type": "uint256"
        }
      ],
      "name": "Approval",
      "type": "event"
    },
    {
      "anonymous": false,
      "inputs": [
        {
          "indexed": true,
          "internalType": "address",
          "name": "owner",
          "type": "address"
        },
        {
          "indexed": true,
          "internalType": "address",
          "name": "operator",
          "type": "address"
        },
        {
          "indexed": false,
          "internalType": "bool",
          "name": "approved",
          "type": "bool"
        }
      ],
      "name": "ApprovalForAll",
      "type": "event"
    },
    {
      "anonymous": false,
      "inputs": [
        {
          "indexed": true,
          "internalType": "address",
          "name": "from",
          "type": "address"
        },
        {
          "indexed": true,
          "internalType": "address",
          "name": "to",
          "type": "address"
        },
        {
          "indexed": true,
          "internalType": "uint256",
          "name": "tokenId",
          "type": "uint256"
        }
      ],
      "name": "Transfer",
      "type": "event"
    },
    {
      "inputs": [],
      "name": "admin",
      "outputs": [
        {
          "internalType": "address",
          "name": "",
          "type": "address"
        }
      ],
      "stateMutability": "view",
      "type": "function"
    },
    {
      "inputs": [
        {
          "internalType": "address",
          "name": "to",
          "type": "address"
        },
        {
          "internalType": "uint256",
          "name": "tokenId",
          "type": "uint256"
        }
      ],
      "name": "approve",
      "outputs": [],
      "stateMutability": "nonpayable",
      "type": "function"
    },
    {
      "inputs": [
        {
          "internalType": "address",
          "name": "owner",
          "type": "address"
        }
      ],
      "name": "balanceOf",
      "outputs": [
        {
          "internalType": "uint256",
          "name": "",
          "type": "uint256"
        }
      ],
      "stateMutability": "view",
      "type": "function"
    },
    {
      "inputs": [
        {
          "internalType": "address",
          "name": "",
          "type": "address"
        }
      ],
      "name": "clubs",
      "outputs": [
        {
          "internalType": "string",
          "name": "name",
          "type": "string"
        },
        {
          "internalType": "string",
          "name": "location",
          "type": "string"
        },
        {
          "internalType": "address",
          "name": "clubAddress",
          "type": "address"
        },
        {
          "internalType": "bool",
          "name": "isRegistered",
          "type": "bool"
        }
      ],
      "stateMutability": "view",
      "type": "function"
    },
    {
      "inputs": [
        {
          "internalType": "uint256",
          "name": "tokenId",
          "type": "uint256"
        }
      ],
      "name": "getApproved",
      "outputs": [
        {
          "internalType": "address",
          "name": "",
          "type": "address"
        }
      ],
      "stateMutability": "view",
      "type": "function"
    },
    {
      "inputs": [
        {
          "internalType": "address",
          "name": "owner",
          "type": "address"
        },
        {
          "internalType": "address",
          "name": "operator",
          "type": "address"
        }
      ],
      "name": "isApprovedForAll",
      "outputs": [
        {
          "internalType": "bool",
          "name": "",
          "type": "bool"
        }
      ],
      "stateMutability": "view",
      "type": "function"
    },
    {
      "inputs": [],
      "name": "name",
      "outputs": [
        {
          "internalType": "string",
          "name": "",
          "type": "string"
        }
      ],
      "stateMutability": "view",
      "type": "function"
    },
    {
      "inputs": [
        {
          "internalType": "uint256",
          "name": "tokenId",
          "type": "uint256"
        }
      ],
      "name": "ownerOf",
      "outputs": [
        {
          "internalType": "address",
          "name": "",
          "type": "address"
        }
      ],
      "stateMutability": "view",
      "type": "function"
    },
    {
      "inputs": [
        {
          "internalType": "address",
          "name": "",
          "type": "address"
        }
      ],
      "name": "players",
      "outputs": [
        {
          "internalType": "string",
          "name": "name",
          "type": "string"
        },
        {
          "internalType": "uint256",
          "name": "dateOfBirth",
          "type": "uint256"
        },
        {
          "internalType": "uint256",
          "name": "contractLength",
          "type": "uint256"
        },
        {
          "internalType": "uint256",
          "name": "salary",
          "type": "uint256"
        },
        {
          "internalType": "uint256",
          "name": "playerRating",
          "type": "uint256"
        },
        {
          "internalType": "uint256",
          "name": "form",
          "type": "uint256"
        },
        {
          "internalType": "address",
          "name": "playerAddress",
          "type": "address"
        },
        {
          "internalType": "uint256",
          "name": "baseSellingPrice",
          "type": "uint256"
        },
        {
          "internalType": "address",
          "name": "currentClub",
          "type": "address"
        },
        {
          "internalType": "bool",
          "name": "isRegistered",
          "type": "bool"
        },
        {
          "components": [
            {
              "internalType": "bool",
              "name": "isNFTforSale",
              "type": "bool"
            },
            {
              "internalType": "uint256",
              "name": "nftTokenId",
              "type": "uint256"
            },
            {
              "internalType": "address",
              "name": "currentNftOwner",
              "type": "address"
            }
          ],
          "internalType": "struct PlayerNFT.NFT",
          "name": "nft",
          "type": "tuple"
        }
      ],
      "stateMutability": "view",
      "type": "function"
    },
    {
      "inputs": [
        {
          "internalType": "address",
          "name": "from",
          "type": "address"
        },
        {
          "internalType": "address",
          "name": "to",
          "type": "address"
        },
        {
          "internalType": "uint256",
          "name": "tokenId",
          "type": "uint256"
        }
      ],
      "name": "safeTransferFrom",
      "outputs": [],
      "stateMutability": "nonpayable",
      "type": "function"
    },
    {
      "inputs": [
        {
          "internalType": "address",
          "name": "from",
          "type": "address"
        },
        {
          "internalType": "address",
          "name": "to",
          "type": "address"
        },
        {
          "internalType": "uint256",
          "name": "tokenId",
          "type": "uint256"
        },
        {
          "internalType": "bytes",
          "name": "_data",
          "type": "bytes"
        }
      ],
      "name": "safeTransferFrom",
      "outputs": [],
      "stateMutability": "nonpayable",
      "type": "function"
    },
    {
      "inputs": [
        {
          "internalType": "address",
          "name": "operator",
          "type": "address"
        },
        {
          "internalType": "bool",
          "name": "approved",
          "type": "bool"
        }
      ],
      "name": "setApprovalForAll",
      "outputs": [],
      "stateMutability": "nonpayable",
      "type": "function"
    },
    {
      "inputs": [
        {
          "internalType": "bytes4",
          "name": "interfaceId",
          "type": "bytes4"
        }
      ],
      "name": "supportsInterface",
      "outputs": [
        {
          "internalType": "bool",
          "name": "",
          "type": "bool"
        }
      ],
      "stateMutability": "view",
      "type": "function"
    },
    {
      "inputs": [],
      "name": "symbol",
      "outputs": [
        {
          "internalType": "string",
          "name": "",
          "type": "string"
        }
      ],
      "stateMutability": "view",
      "type": "function"
    },
    {
      "inputs": [
        {
          "internalType": "uint256",
          "name": "",
          "type": "uint256"
        },
        {
          "internalType": "uint256",
          "name": "",
          "type": "uint256"
        }
      ],
      "name": "tokenRequests",
      "outputs": [
        {
          "internalType": "address",
          "name": "",
          "type": "address"
        }
      ],
      "stateMutability": "view",
      "type": "function"
    },
    {
      "inputs": [
        {
          "internalType": "uint256",
          "name": "tokenId",
          "type": "uint256"
        }
      ],
      "name": "tokenURI",
      "outputs": [
        {
          "internalType": "string",
          "name": "",
          "type": "string"
        }
      ],
      "stateMutability": "view",
      "type": "function"
    },
    {
      "inputs": [
        {
          "internalType": "address",
          "name": "from",
          "type": "address"
        },
        {
          "internalType": "address",
          "name": "to",
          "type": "address"
        },
        {
          "internalType": "uint256",
          "name": "tokenId",
          "type": "uint256"
        }
      ],
      "name": "transferFrom",
      "outputs": [],
      "stateMutability": "nonpayable",
      "type": "function"
    },
    {
      "inputs": [
        {
          "internalType": "uint256",
          "name": "tokenId",
          "type": "uint256"
        }
      ],
      "name": "sendTradeRequest",
      "outputs": [],
      "stateMutability": "nonpayable",
      "type": "function"
    },
    {
      "inputs": [
        {
          "internalType": "uint256",
          "name": "tokenId",
          "type": "uint256"
        }
      ],
      "name": "getAllTradeRequests",
      "outputs": [
        {
          "internalType": "address[]",
          "name": "",
          "type": "address[]"
        }
      ],
      "stateMutability": "view",
      "type": "function"
    },
    {
      "inputs": [
        {
          "internalType": "string",
          "name": "name",
          "type": "string"
        },
        {
          "internalType": "string",
          "name": "location",
          "type": "string"
        }
      ],
      "name": "registerClub",
      "outputs": [],
      "stateMutability": "nonpayable",
      "type": "function"
    },
    {
      "inputs": [
        {
          "internalType": "address",
          "name": "clubAddress",
          "type": "address"
        }
      ],
      "name": "unregisterClub",
      "outputs": [],
      "stateMutability": "nonpayable",
      "type": "function"
    },
    {
      "inputs": [
        {
          "internalType": "string",
          "name": "name",
          "type": "string"
        },
        {
          "internalType": "uint256",
          "name": "age",
          "type": "uint256"
        },
        {
          "internalType": "uint256",
          "name": "contractLength",
          "type": "uint256"
        },
        {
          "internalType": "uint256",
          "name": "salary",
          "type": "uint256"
        },
        {
          "internalType": "uint256",
          "name": "playerRating",
          "type": "uint256"
        },
        {
          "internalType": "uint256",
          "name": "form",
          "type": "uint256"
        },
        {
          "internalType": "uint256",
          "name": "baseSellingPrice",
          "type": "uint256"
        }
      ],
      "name": "registerPlayer",
      "outputs": [],
      "stateMutability": "nonpayable",
      "type": "function"
    },
    {
      "inputs": [
        {
          "internalType": "address",
          "name": "playerAddress",
          "type": "address"
        }
      ],
      "name": "unregisterPlayer",
      "outputs": [],
      "stateMutability": "nonpayable",
      "type": "function"
    },
    {
      "inputs": [],
      "name": "createPlayerNFT",
      "outputs": [
        {
          "internalType": "uint256",
          "name": "",
          "type": "uint256"
        }
      ],
      "stateMutability": "nonpayable",
      "type": "function"
    },
    {
      "inputs": [
        {
          "internalType": "address",
          "name": "clubAddress",
          "type": "address"
        }
      ],
      "name": "transferPlayerNFTTo",
      "outputs": [],
      "stateMutability": "nonpayable",
      "type": "function"
    },
    {
      "inputs": [
        {
          "internalType": "uint256",
          "name": "tokenId",
          "type": "uint256"
        }
      ],
      "name": "getNFTOwner",
      "outputs": [
        {
          "internalType": "address",
          "name": "",
          "type": "address"
        }
      ],
      "stateMutability": "view",
      "type": "function"
    }
  ],
  "bytecode": "0x60806040523480156200001157600080fd5b506040518060400160405280600981526020017f506c617965724e465400000000000000000000000000000000000000000000008152506040518060400160405280600481526020017f504e465400000000000000000000000000000000000000000000000000000000815250816000908051906020019062000096929190620000f9565b508060019080519060200190620000af929190620000f9565b50505033600660006101000a81548173ffffffffffffffffffffffffffffffffffffffff021916908373ffffffffffffffffffffffffffffffffffffffff1602179055506200020e565b8280546200010790620001a9565b90600052602060002090601f0160209004810192826200012b576000855562000177565b82601f106200014657805160ff191683800117855562000177565b8280016001018555821562000177579182015b828111156200017657825182559160200191906001019062000159565b5b5090506200018691906200018a565b5090565b5b80821115620001a55760008160009055506001016200018b565b5090565b60006002820490506001821680620001c257607f821691505b60208210811415620001d957620001d8620001df565b5b50919050565b7f4e487b7100000000000000000000000000000000000000000000000000000000600052602260045260246000fd5b61485f806200021e6000396000f3fe608060405234801561001057600080fd5b506004361061018e5760003560e01c806395d89b41116100de578063cbc667f711610097578063e2eb41ff11610071578063e2eb41ff146104b8578063e985e9c5146104f2578063ed989f7014610522578063f851a4401461053e5761018e565b8063cbc667f71461043c578063d47460cc14610458578063deaea2e3146104885761018e565b806395d89b411461037e5780639605974d1461039c578063a1cdc476146103b8578063a22cb465146103d4578063b88d4fde146103f0578063c87b56dd1461040c5761018e565b806348bd49461161014b57806370a082311161012557806370a08231146102e657806376dd6fe0146103165780637e5128a5146103325780638179db651461034e5761018e565b806348bd4946146102655780634c979f8d146102985780636352211e146102b65761018e565b806301ffc9a71461019357806306fdde03146101c3578063081812fc146101e1578063095ea7b31461021157806323b872dd1461022d57806342842e0e14610249575b600080fd5b6101ad60048036038101906101a89190613174565b61055c565b6040516101ba9190613951565b60405180910390f35b6101cb61063e565b6040516101d8919061396c565b60405180910390f35b6101fb60048036038101906101f691906132e8565b6106d0565b60405161020891906138c8565b60405180910390f35b61022b60048036038101906102269190613138565b610755565b005b61024760048036038101906102429190613032565b61086d565b005b610263600480360381019061025e9190613032565b6108cd565b005b61027f600480360381019061027a9190612fcd565b6108ed565b60405161028f949392919061398e565b60405180910390f35b6102a0610a5a565b6040516102ad9190613d93565b60405180910390f35b6102d060048036038101906102cb91906132e8565b610c9e565b6040516102dd91906138c8565b60405180910390f35b61030060048036038101906102fb9190612fcd565b610d50565b60405161030d9190613d93565b60405180910390f35b610330600480360381019061032b91906132e8565b610e08565b005b61034c60048036038101906103479190612fcd565b610ffd565b005b61036860048036038101906103639190613311565b6112e4565b60405161037591906138c8565b60405180910390f35b610386611332565b604051610393919061396c565b60405180910390f35b6103b660048036038101906103b19190612fcd565b6113c4565b005b6103d260048036038101906103cd9190613232565b611541565b005b6103ee60048036038101906103e991906130fc565b611853565b005b61040a60048036038101906104059190613081565b611869565b005b610426600480360381019061042191906132e8565b6118cb565b604051610433919061396c565b60405180910390f35b61045660048036038101906104519190612fcd565b611972565b005b610472600480360381019061046d91906132e8565b611aef565b60405161047f919061392f565b60405180910390f35b6104a2600480360381019061049d91906132e8565b611c08565b6040516104af91906138c8565b60405180910390f35b6104d260048036038101906104cd9190612fcd565b611c62565b6040516104e99b9a999897969594939291906139e1565b60405180910390f35b61050c60048036038101906105079190612ff6565b611e16565b6040516105199190613951565b60405180910390f35b61053c600480360381019061053791906131c6565b611eaa565b005b6105466120ed565b60405161055391906138c8565b60405180910390f35b60007f80ac58cd000000000000000000000000000000000000000000000000000000007bffffffffffffffffffffffffffffffffffffffffffffffffffffffff1916827bffffffffffffffffffffffffffffffffffffffffffffffffffffffff1916148061062757507f5b5e139f000000000000000000000000000000000000000000000000000000007bffffffffffffffffffffffffffffffffffffffffffffffffffffffff1916827bffffffffffffffffffffffffffffffffffffffffffffffffffffffff1916145b80610637575061063682612113565b5b9050919050565b60606000805461064d90614022565b80601f016020809104026020016040519081016040528092919081815260200182805461067990614022565b80156106c65780601f1061069b576101008083540402835291602001916106c6565b820191906000526020600020905b8154815290600101906020018083116106a957829003601f168201915b5050505050905090565b60006106db8261217d565b61071a576040517f08c379a000000000000000000000000000000000000000000000000000000000815260040161071190613c93565b60405180910390fd5b6004600083815260200190815260200160002060009054906101000a900473ffffffffffffffffffffffffffffffffffffffff169050919050565b600061076082610c9e565b90508073ffffffffffffffffffffffffffffffffffffffff168373ffffffffffffffffffffffffffffffffffffffff1614156107d1576040517f08c379a00000000000000000000000000000000000000000000000000000000081526004016107c890613d33565b60405180910390fd5b8073ffffffffffffffffffffffffffffffffffffffff166107f06121e9565b73ffffffffffffffffffffffffffffffffffffffff16148061081f575061081e816108196121e9565b611e16565b5b61085e576040517f08c379a000000000000000000000000000000000000000000000000000000000815260040161085590613bb3565b60405180910390fd5b61086883836121f1565b505050565b61087e6108786121e9565b826122aa565b6108bd576040517f08c379a00000000000000000000000000000000000000000000000000000000081526004016108b490613d53565b60405180910390fd5b6108c8838383612388565b505050565b6108e883838360405180602001604052806000815250611869565b505050565b600760205280600052604060002060009150905080600001805461091090614022565b80601f016020809104026020016040519081016040528092919081815260200182805461093c90614022565b80156109895780601f1061095e57610100808354040283529160200191610989565b820191906000526020600020905b81548152906001019060200180831161096c57829003601f168201915b50505050509080600101805461099e90614022565b80601f01602080910402602001604051908101604052809291908181526020018280546109ca90614022565b8015610a175780601f106109ec57610100808354040283529160200191610a17565b820191906000526020600020905b8154815290600101906020018083116109fa57829003601f168201915b5050505050908060020160009054906101000a900473ffffffffffffffffffffffffffffffffffffffff16908060040160009054906101000a900460ff16905084565b6000600860003373ffffffffffffffffffffffffffffffffffffffff1673ffffffffffffffffffffffffffffffffffffffff16815260200190815260200160002060080160149054906101000a900460ff16610aeb576040517f08c379a0000000000000000000000000000000000000000000000000000000008152600401610ae290613d73565b60405180910390fd5b6000600860003373ffffffffffffffffffffffffffffffffffffffff1673ffffffffffffffffffffffffffffffffffffffff1681526020019081526020016000206009016001015414610b73576040517f08c379a0000000000000000000000000000000000000000000000000000000008152600401610b6a90613b73565b60405180910390fd5b60003342604051602001610b88929190613878565b6040516020818303038152906040528051906020012060001c9050610bad33826125e4565b60405180606001604052806001151581526020018281526020013373ffffffffffffffffffffffffffffffffffffffff16815250600860003373ffffffffffffffffffffffffffffffffffffffff1673ffffffffffffffffffffffffffffffffffffffff16815260200190815260200160002060090160008201518160000160006101000a81548160ff0219169083151502179055506020820151816001015560408201518160020160006101000a81548173ffffffffffffffffffffffffffffffffffffffff021916908373ffffffffffffffffffffffffffffffffffffffff1602179055509050508091505090565b6000806002600084815260200190815260200160002060009054906101000a900473ffffffffffffffffffffffffffffffffffffffff169050600073ffffffffffffffffffffffffffffffffffffffff168173ffffffffffffffffffffffffffffffffffffffff161415610d47576040517f08c379a0000000000000000000000000000000000000000000000000000000008152600401610d3e90613c33565b60405180910390fd5b80915050919050565b60008073ffffffffffffffffffffffffffffffffffffffff168273ffffffffffffffffffffffffffffffffffffffff161415610dc1576040517f08c379a0000000000000000000000000000000000000000000000000000000008152600401610db890613c13565b60405180910390fd5b600360008373ffffffffffffffffffffffffffffffffffffffff1673ffffffffffffffffffffffffffffffffffffffff168152602001908152602001600020549050919050565b600760003373ffffffffffffffffffffffffffffffffffffffff1673ffffffffffffffffffffffffffffffffffffffff16815260200190815260200160002060040160009054906101000a900460ff16610e97576040517f08c379a0000000000000000000000000000000000000000000000000000000008152600401610e8e90613af3565b60405180910390fd5b6000805b6009600084815260200190815260200160002080549050811015610f7e573373ffffffffffffffffffffffffffffffffffffffff16600960008581526020019081526020016000208281548110610f1b577f4e487b7100000000000000000000000000000000000000000000000000000000600052603260045260246000fd5b9060005260206000200160009054906101000a900473ffffffffffffffffffffffffffffffffffffffff1673ffffffffffffffffffffffffffffffffffffffff161415610f6b5760019150610f7e565b8080610f7690614085565b915050610e9b565b5080610ff95760096000838152602001908152602001600020339080600181540180825580915050600190039060005260206000200160009091909190916101000a81548173ffffffffffffffffffffffffffffffffffffffff021916908373ffffffffffffffffffffffffffffffffffffffff1602179055505b5050565b600760008273ffffffffffffffffffffffffffffffffffffffff1673ffffffffffffffffffffffffffffffffffffffff16815260200190815260200160002060040160009054906101000a900460ff1661108c576040517f08c379a000000000000000000000000000000000000000000000000000000000815260040161108390613b93565b60405180910390fd5b600860003373ffffffffffffffffffffffffffffffffffffffff1673ffffffffffffffffffffffffffffffffffffffff16815260200190815260200160002060090160000160009054906101000a900460ff1661111e576040517f08c379a000000000000000000000000000000000000000000000000000000000815260040161111590613cb3565b60405180910390fd5b6000600860003373ffffffffffffffffffffffffffffffffffffffff1673ffffffffffffffffffffffffffffffffffffffff1681526020019081526020016000206009016001015490506111733383836108cd565b604051806060016040528060001515815260200160008152602001600073ffffffffffffffffffffffffffffffffffffffff16815250600860003373ffffffffffffffffffffffffffffffffffffffff1673ffffffffffffffffffffffffffffffffffffffff16815260200190815260200160002060090160008201518160000160006101000a81548160ff0219169083151502179055506020820151816001015560408201518160020160006101000a81548173ffffffffffffffffffffffffffffffffffffffff021916908373ffffffffffffffffffffffffffffffffffffffff16021790555090505081600860003373ffffffffffffffffffffffffffffffffffffffff1673ffffffffffffffffffffffffffffffffffffffff16815260200190815260200160002060080160006101000a81548173ffffffffffffffffffffffffffffffffffffffff021916908373ffffffffffffffffffffffffffffffffffffffff1602179055505050565b6009602052816000526040600020818154811061130057600080fd5b906000526020600020016000915091509054906101000a900473ffffffffffffffffffffffffffffffffffffffff1681565b60606001805461134190614022565b80601f016020809104026020016040519081016040528092919081815260200182805461136d90614022565b80156113ba5780601f1061138f576101008083540402835291602001916113ba565b820191906000526020600020905b81548152906001019060200180831161139d57829003601f168201915b5050505050905090565b600660009054906101000a900473ffffffffffffffffffffffffffffffffffffffff1673ffffffffffffffffffffffffffffffffffffffff163373ffffffffffffffffffffffffffffffffffffffff1614611454576040517f08c379a000000000000000000000000000000000000000000000000000000000815260040161144b90613a93565b60405180910390fd5b600860008273ffffffffffffffffffffffffffffffffffffffff1673ffffffffffffffffffffffffffffffffffffffff16815260200190815260200160002060080160149054906101000a900460ff166114e3576040517f08c379a00000000000000000000000000000000000000000000000000000000081526004016114da90613d73565b60405180910390fd5b6000600860008373ffffffffffffffffffffffffffffffffffffffff1673ffffffffffffffffffffffffffffffffffffffff16815260200190815260200160002060080160146101000a81548160ff02191690831515021790555050565b600860003373ffffffffffffffffffffffffffffffffffffffff1673ffffffffffffffffffffffffffffffffffffffff16815260200190815260200160002060080160149054906101000a900460ff16156115d1576040517f08c379a00000000000000000000000000000000000000000000000000000000081526004016115c890613bf3565b60405180910390fd5b6040518061016001604052808881526020018781526020018681526020018581526020018481526020018381526020013373ffffffffffffffffffffffffffffffffffffffff168152602001828152602001600073ffffffffffffffffffffffffffffffffffffffff168152602001600115158152602001604051806060016040528060001515815260200160008152602001600073ffffffffffffffffffffffffffffffffffffffff16815250815250600860003373ffffffffffffffffffffffffffffffffffffffff1673ffffffffffffffffffffffffffffffffffffffff16815260200190815260200160002060008201518160000190805190602001906116dd929190612d67565b506020820151816001015560408201518160020155606082015181600301556080820151816004015560a0820151816005015560c08201518160060160006101000a81548173ffffffffffffffffffffffffffffffffffffffff021916908373ffffffffffffffffffffffffffffffffffffffff16021790555060e082015181600701556101008201518160080160006101000a81548173ffffffffffffffffffffffffffffffffffffffff021916908373ffffffffffffffffffffffffffffffffffffffff1602179055506101208201518160080160146101000a81548160ff0219169083151502179055506101408201518160090160008201518160000160006101000a81548160ff0219169083151502179055506020820151816001015560408201518160020160006101000a81548173ffffffffffffffffffffffffffffffffffffffff021916908373ffffffffffffffffffffffffffffffffffffffff160217905550505090505050505050505050565b61186561185e6121e9565b8383612602565b5050565b61187a6118746121e9565b836122aa565b6118b9576040517f08c379a00000000000000000000000000000000000000000000000000000000081526004016118b090613d53565b60405180910390fd5b6118c58484848461276f565b50505050565b60606118d68261217d565b611915576040517f08c379a000000000000000000000000000000000000000000000000000000000815260040161190c90613cf3565b60405180910390fd5b600061191f6127cb565b9050600081511161193f576040518060200160405280600081525061196a565b80611949846127e2565b60405160200161195a9291906138a4565b6040516020818303038152906040525b915050919050565b600660009054906101000a900473ffffffffffffffffffffffffffffffffffffffff1673ffffffffffffffffffffffffffffffffffffffff163373ffffffffffffffffffffffffffffffffffffffff1614611a02576040517f08c379a00000000000000000000000000000000000000000000000000000000081526004016119f990613a93565b60405180910390fd5b600760008273ffffffffffffffffffffffffffffffffffffffff1673ffffffffffffffffffffffffffffffffffffffff16815260200190815260200160002060040160009054906101000a900460ff16611a91576040517f08c379a0000000000000000000000000000000000000000000000000000000008152600401611a8890613b93565b60405180910390fd5b6000600760008373ffffffffffffffffffffffffffffffffffffffff1673ffffffffffffffffffffffffffffffffffffffff16815260200190815260200160002060040160006101000a81548160ff02191690831515021790555050565b6060813373ffffffffffffffffffffffffffffffffffffffff16611b1282610c9e565b73ffffffffffffffffffffffffffffffffffffffff1614611b68576040517f08c379a0000000000000000000000000000000000000000000000000000000008152600401611b5f90613bd3565b60405180910390fd5b60096000848152602001908152602001600020805480602002602001604051908101604052809291908181526020018280548015611bfb57602002820191906000526020600020905b8160009054906101000a900473ffffffffffffffffffffffffffffffffffffffff1673ffffffffffffffffffffffffffffffffffffffff1681526020019060010190808311611bb1575b5050505050915050919050565b6000611c138261217d565b611c52576040517f08c379a0000000000000000000000000000000000000000000000000000000008152600401611c4990613c53565b60405180910390fd5b611c5b82610c9e565b9050919050565b6008602052806000526040600020600091509050806000018054611c8590614022565b80601f0160208091040260200160405190810160405280929190818152602001828054611cb190614022565b8015611cfe5780601f10611cd357610100808354040283529160200191611cfe565b820191906000526020600020905b815481529060010190602001808311611ce157829003601f168201915b5050505050908060010154908060020154908060030154908060040154908060050154908060060160009054906101000a900473ffffffffffffffffffffffffffffffffffffffff16908060070154908060080160009054906101000a900473ffffffffffffffffffffffffffffffffffffffff16908060080160149054906101000a900460ff1690806009016040518060600160405290816000820160009054906101000a900460ff16151515158152602001600182015481526020016002820160009054906101000a900473ffffffffffffffffffffffffffffffffffffffff1673ffffffffffffffffffffffffffffffffffffffff1673ffffffffffffffffffffffffffffffffffffffff168152505090508b565b6000600560008473ffffffffffffffffffffffffffffffffffffffff1673ffffffffffffffffffffffffffffffffffffffff16815260200190815260200160002060008373ffffffffffffffffffffffffffffffffffffffff1673ffffffffffffffffffffffffffffffffffffffff16815260200190815260200160002060009054906101000a900460ff16905092915050565b600760003373ffffffffffffffffffffffffffffffffffffffff1673ffffffffffffffffffffffffffffffffffffffff16815260200190815260200160002060040160009054906101000a900460ff1615611f3a576040517f08c379a0000000000000000000000000000000000000000000000000000000008152600401611f3190613d13565b60405180910390fd5b6040518060a001604052808381526020018281526020013373ffffffffffffffffffffffffffffffffffffffff168152602001600067ffffffffffffffff811115611fae577f4e487b7100000000000000000000000000000000000000000000000000000000600052604160045260246000fd5b604051908082528060200260200182016040528015611fdc5781602001602082028036833780820191505090505b50815260200160011515815250600760003373ffffffffffffffffffffffffffffffffffffffff1673ffffffffffffffffffffffffffffffffffffffff1681526020019081526020016000206000820151816000019080519060200190612044929190612d67565b506020820151816001019080519060200190612061929190612d67565b5060408201518160020160006101000a81548173ffffffffffffffffffffffffffffffffffffffff021916908373ffffffffffffffffffffffffffffffffffffffff16021790555060608201518160030190805190602001906120c5929190612ded565b5060808201518160040160006101000a81548160ff0219169083151502179055509050505050565b600660009054906101000a900473ffffffffffffffffffffffffffffffffffffffff1681565b60007f01ffc9a7000000000000000000000000000000000000000000000000000000007bffffffffffffffffffffffffffffffffffffffffffffffffffffffff1916827bffffffffffffffffffffffffffffffffffffffffffffffffffffffff1916149050919050565b60008073ffffffffffffffffffffffffffffffffffffffff166002600084815260200190815260200160002060009054906101000a900473ffffffffffffffffffffffffffffffffffffffff1673ffffffffffffffffffffffffffffffffffffffff1614159050919050565b600033905090565b816004600083815260200190815260200160002060006101000a81548173ffffffffffffffffffffffffffffffffffffffff021916908373ffffffffffffffffffffffffffffffffffffffff160217905550808273ffffffffffffffffffffffffffffffffffffffff1661226483610c9e565b73ffffffffffffffffffffffffffffffffffffffff167f8c5be1e5ebec7d5bd14f71427d1e84f3dd0314c0f7b2291e5b200ac8c7c3b92560405160405180910390a45050565b60006122b58261217d565b6122f4576040517f08c379a00000000000000000000000000000000000000000000000000000000081526004016122eb90613b53565b60405180910390fd5b60006122ff83610c9e565b90508073ffffffffffffffffffffffffffffffffffffffff168473ffffffffffffffffffffffffffffffffffffffff16148061236e57508373ffffffffffffffffffffffffffffffffffffffff16612356846106d0565b73ffffffffffffffffffffffffffffffffffffffff16145b8061237f575061237e8185611e16565b5b91505092915050565b8273ffffffffffffffffffffffffffffffffffffffff166123a882610c9e565b73ffffffffffffffffffffffffffffffffffffffff16146123fe576040517f08c379a00000000000000000000000000000000000000000000000000000000081526004016123f590613cd3565b60405180910390fd5b600073ffffffffffffffffffffffffffffffffffffffff168273ffffffffffffffffffffffffffffffffffffffff16141561246e576040517f08c379a000000000000000000000000000000000000000000000000000000000815260040161246590613b13565b60405180910390fd5b61247983838361298f565b6124846000826121f1565b6001600360008573ffffffffffffffffffffffffffffffffffffffff1673ffffffffffffffffffffffffffffffffffffffff16815260200190815260200160002060008282546124d49190613f38565b925050819055506001600360008473ffffffffffffffffffffffffffffffffffffffff1673ffffffffffffffffffffffffffffffffffffffff168152602001908152602001600020600082825461252b9190613eb1565b92505081905550816002600083815260200190815260200160002060006101000a81548173ffffffffffffffffffffffffffffffffffffffff021916908373ffffffffffffffffffffffffffffffffffffffff160217905550808273ffffffffffffffffffffffffffffffffffffffff168473ffffffffffffffffffffffffffffffffffffffff167fddf252ad1be2c89b69c2b068fc378daa952ba7f163c4a11628f55a4df523b3ef60405160405180910390a4505050565b6125fe828260405180602001604052806000815250612994565b5050565b8173ffffffffffffffffffffffffffffffffffffffff168373ffffffffffffffffffffffffffffffffffffffff161415612671576040517f08c379a000000000000000000000000000000000000000000000000000000000815260040161266890613b33565b60405180910390fd5b80600560008573ffffffffffffffffffffffffffffffffffffffff1673ffffffffffffffffffffffffffffffffffffffff16815260200190815260200160002060008473ffffffffffffffffffffffffffffffffffffffff1673ffffffffffffffffffffffffffffffffffffffff16815260200190815260200160002060006101000a81548160ff0219169083151502179055508173ffffffffffffffffffffffffffffffffffffffff168373ffffffffffffffffffffffffffffffffffffffff167f17307eab39ab6107e8899845ad3d59bd9653f200f220920489ca2b5937696c31836040516127629190613951565b60405180910390a3505050565b61277a848484612388565b612786848484846129ef565b6127c5576040517f08c379a00000000000000000000000000000000000000000000000000000000081526004016127bc90613ab3565b60405180910390fd5b50505050565b606060405180602001604052806000815250905090565b6060600082141561282a576040518060400160405280600181526020017f3000000000000000000000000000000000000000000000000000000000000000815250905061298a565b600082905060005b6000821461285c57808061284590614085565b915050600a826128559190613f07565b9150612832565b60008167ffffffffffffffff81111561289e577f4e487b7100000000000000000000000000000000000000000000000000000000600052604160045260246000fd5b6040519080825280601f01601f1916602001820160405280156128d05781602001600182028036833780820191505090505b5090505b60008514612983576001826128e99190613f38565b9150600a856128f891906140fc565b60306129049190613eb1565b60f81b818381518110612940577f4e487b7100000000000000000000000000000000000000000000000000000000600052603260045260246000fd5b60200101907effffffffffffffffffffffffffffffffffffffffffffffffffffffffffffff1916908160001a905350600a8561297c9190613f07565b94506128d4565b8093505050505b919050565b505050565b61299e8383612b86565b6129ab60008484846129ef565b6129ea576040517f08c379a00000000000000000000000000000000000000000000000000000000081526004016129e190613ab3565b60405180910390fd5b505050565b6000612a108473ffffffffffffffffffffffffffffffffffffffff16612d54565b15612b79578373ffffffffffffffffffffffffffffffffffffffff1663150b7a02612a396121e9565b8786866040518563ffffffff1660e01b8152600401612a5b94939291906138e3565b602060405180830381600087803b158015612a7557600080fd5b505af1925050508015612aa657506040513d601f19601f82011682018060405250810190612aa3919061319d565b60015b612b29573d8060008114612ad6576040519150601f19603f3d011682016040523d82523d6000602084013e612adb565b606091505b50600081511415612b21576040517f08c379a0000000000000000000000000000000000000000000000000000000008152600401612b1890613ab3565b60405180910390fd5b805181602001fd5b63150b7a0260e01b7bffffffffffffffffffffffffffffffffffffffffffffffffffffffff1916817bffffffffffffffffffffffffffffffffffffffffffffffffffffffff191614915050612b7e565b600190505b949350505050565b600073ffffffffffffffffffffffffffffffffffffffff168273ffffffffffffffffffffffffffffffffffffffff161415612bf6576040517f08c379a0000000000000000000000000000000000000000000000000000000008152600401612bed90613c73565b60405180910390fd5b612bff8161217d565b15612c3f576040517f08c379a0000000000000000000000000000000000000000000000000000000008152600401612c3690613ad3565b60405180910390fd5b612c4b6000838361298f565b6001600360008473ffffffffffffffffffffffffffffffffffffffff1673ffffffffffffffffffffffffffffffffffffffff1681526020019081526020016000206000828254612c9b9190613eb1565b92505081905550816002600083815260200190815260200160002060006101000a81548173ffffffffffffffffffffffffffffffffffffffff021916908373ffffffffffffffffffffffffffffffffffffffff160217905550808273ffffffffffffffffffffffffffffffffffffffff16600073ffffffffffffffffffffffffffffffffffffffff167fddf252ad1be2c89b69c2b068fc378daa952ba7f163c4a11628f55a4df523b3ef60405160405180910390a45050565b600080823b905060008111915050919050565b828054612d7390614022565b90600052602060002090601f016020900481019282612d955760008555612ddc565b82601f10612dae57805160ff1916838001178555612ddc565b82800160010185558215612ddc579182015b82811115612ddb578251825591602001919060010190612dc0565b5b509050612de99190612e77565b5090565b828054828255906000526020600020908101928215612e66579160200282015b82811115612e655782518260006101000a81548173ffffffffffffffffffffffffffffffffffffffff021916908373ffffffffffffffffffffffffffffffffffffffff16021790555091602001919060010190612e0d565b5b509050612e739190612e77565b5090565b5b80821115612e90576000816000905550600101612e78565b5090565b6000612ea7612ea284613dd3565b613dae565b905082815260208101848484011115612ebf57600080fd5b612eca848285613fe0565b509392505050565b6000612ee5612ee084613e04565b613dae565b905082815260208101848484011115612efd57600080fd5b612f08848285613fe0565b509392505050565b600081359050612f1f816147cd565b92915050565b600081359050612f34816147e4565b92915050565b600081359050612f49816147fb565b92915050565b600081519050612f5e816147fb565b92915050565b600082601f830112612f7557600080fd5b8135612f85848260208601612e94565b91505092915050565b600082601f830112612f9f57600080fd5b8135612faf848260208601612ed2565b91505092915050565b600081359050612fc781614812565b92915050565b600060208284031215612fdf57600080fd5b6000612fed84828501612f10565b91505092915050565b6000806040838503121561300957600080fd5b600061301785828601612f10565b925050602061302885828601612f10565b9150509250929050565b60008060006060848603121561304757600080fd5b600061305586828701612f10565b935050602061306686828701612f10565b925050604061307786828701612fb8565b9150509250925092565b6000806000806080858703121561309757600080fd5b60006130a587828801612f10565b94505060206130b687828801612f10565b93505060406130c787828801612fb8565b925050606085013567ffffffffffffffff8111156130e457600080fd5b6130f087828801612f64565b91505092959194509250565b6000806040838503121561310f57600080fd5b600061311d85828601612f10565b925050602061312e85828601612f25565b9150509250929050565b6000806040838503121561314b57600080fd5b600061315985828601612f10565b925050602061316a85828601612fb8565b9150509250929050565b60006020828403121561318657600080fd5b600061319484828501612f3a565b91505092915050565b6000602082840312156131af57600080fd5b60006131bd84828501612f4f565b91505092915050565b600080604083850312156131d957600080fd5b600083013567ffffffffffffffff8111156131f357600080fd5b6131ff85828601612f8e565b925050602083013567ffffffffffffffff81111561321c57600080fd5b61322885828601612f8e565b9150509250929050565b600080600080600080600060e0888a03121561324d57600080fd5b600088013567ffffffffffffffff81111561326757600080fd5b6132738a828b01612f8e565b97505060206132848a828b01612fb8565b96505060406132958a828b01612fb8565b95505060606132a68a828b01612fb8565b94505060806132b78a828b01612fb8565b93505060a06132c88a828b01612fb8565b92505060c06132d98a828b01612fb8565b91505092959891949750929550565b6000602082840312156132fa57600080fd5b600061330884828501612fb8565b91505092915050565b6000806040838503121561332457600080fd5b600061333285828601612fb8565b925050602061334385828601612fb8565b9150509250929050565b60006133598383613365565b60208301905092915050565b61336e81613f6c565b82525050565b61337d81613f6c565b82525050565b61339461338f82613f6c565b6140ce565b82525050565b60006133a582613e45565b6133af8185613e73565b93506133ba83613e35565b8060005b838110156133eb5781516133d2888261334d565b97506133dd83613e66565b9250506001810190506133be565b5085935050505092915050565b61340181613f7e565b82525050565b61341081613f7e565b82525050565b600061342182613e50565b61342b8185613e84565b935061343b818560208601613fef565b613444816141e9565b840191505092915050565b600061345a82613e5b565b6134648185613e95565b9350613474818560208601613fef565b61347d816141e9565b840191505092915050565b600061349382613e5b565b61349d8185613ea6565b93506134ad818560208601613fef565b80840191505092915050565b60006134c6602683613e95565b91506134d182614207565b604082019050919050565b60006134e9603283613e95565b91506134f482614256565b604082019050919050565b600061350c601c83613e95565b9150613517826142a5565b602082019050919050565b600061352f601b83613e95565b915061353a826142ce565b602082019050919050565b6000613552602483613e95565b915061355d826142f7565b604082019050919050565b6000613575601983613e95565b915061358082614346565b602082019050919050565b6000613598602c83613e95565b91506135a38261436f565b604082019050919050565b60006135bb601383613e95565b91506135c6826143be565b602082019050919050565b60006135de601383613e95565b91506135e9826143e7565b602082019050919050565b6000613601603883613e95565b915061360c82614410565b604082019050919050565b6000613624602c83613e95565b915061362f8261445f565b604082019050919050565b6000613647601983613e95565b9150613652826144ae565b602082019050919050565b600061366a602a83613e95565b9150613675826144d7565b604082019050919050565b600061368d602983613e95565b915061369882614526565b604082019050919050565b60006136b0600e83613e95565b91506136bb82614575565b602082019050919050565b60006136d3602083613e95565b91506136de8261459e565b602082019050919050565b60006136f6602c83613e95565b9150613701826145c7565b604082019050919050565b6000613719601783613e95565b915061372482614616565b602082019050919050565b600061373c602983613e95565b91506137478261463f565b604082019050919050565b600061375f602f83613e95565b915061376a8261468e565b604082019050919050565b6000613782601783613e95565b915061378d826146dd565b602082019050919050565b60006137a5602183613e95565b91506137b082614706565b604082019050919050565b60006137c8603183613e95565b91506137d382614755565b604082019050919050565b60006137eb601583613e95565b91506137f6826147a4565b602082019050919050565b60608201600082015161381760008501826133f8565b50602082015161382a6020850182613843565b50604082015161383d6040850182613365565b50505050565b61384c81613fd6565b82525050565b61385b81613fd6565b82525050565b61387261386d82613fd6565b6140f2565b82525050565b60006138848285613383565b6014820191506138948284613861565b6020820191508190509392505050565b60006138b08285613488565b91506138bc8284613488565b91508190509392505050565b60006020820190506138dd6000830184613374565b92915050565b60006080820190506138f86000830187613374565b6139056020830186613374565b6139126040830185613852565b81810360608301526139248184613416565b905095945050505050565b60006020820190508181036000830152613949818461339a565b905092915050565b60006020820190506139666000830184613407565b92915050565b60006020820190508181036000830152613986818461344f565b905092915050565b600060808201905081810360008301526139a8818761344f565b905081810360208301526139bc818661344f565b90506139cb6040830185613374565b6139d86060830184613407565b95945050505050565b60006101a08201905081810360008301526139fc818e61344f565b9050613a0b602083018d613852565b613a18604083018c613852565b613a25606083018b613852565b613a32608083018a613852565b613a3f60a0830189613852565b613a4c60c0830188613374565b613a5960e0830187613852565b613a67610100830186613374565b613a75610120830185613407565b613a83610140830184613801565b9c9b505050505050505050505050565b60006020820190508181036000830152613aac816134b9565b9050919050565b60006020820190508181036000830152613acc816134dc565b9050919050565b60006020820190508181036000830152613aec816134ff565b9050919050565b60006020820190508181036000830152613b0c81613522565b9050919050565b60006020820190508181036000830152613b2c81613545565b9050919050565b60006020820190508181036000830152613b4c81613568565b9050919050565b60006020820190508181036000830152613b6c8161358b565b9050919050565b60006020820190508181036000830152613b8c816135ae565b9050919050565b60006020820190508181036000830152613bac816135d1565b9050919050565b60006020820190508181036000830152613bcc816135f4565b9050919050565b60006020820190508181036000830152613bec81613617565b9050919050565b60006020820190508181036000830152613c0c8161363a565b9050919050565b60006020820190508181036000830152613c2c8161365d565b9050919050565b60006020820190508181036000830152613c4c81613680565b9050919050565b60006020820190508181036000830152613c6c816136a3565b9050919050565b60006020820190508181036000830152613c8c816136c6565b9050919050565b60006020820190508181036000830152613cac816136e9565b9050919050565b60006020820190508181036000830152613ccc8161370c565b9050919050565b60006020820190508181036000830152613cec8161372f565b9050919050565b60006020820190508181036000830152613d0c81613752565b9050919050565b60006020820190508181036000830152613d2c81613775565b9050919050565b60006020820190508181036000830152613d4c81613798565b9050919050565b60006020820190508181036000830152613d6c816137bb565b9050919050565b60006020820190508181036000830152613d8c816137de565b9050919050565b6000602082019050613da86000830184613852565b92915050565b6000613db8613dc9565b9050613dc48282614054565b919050565b6000604051905090565b600067ffffffffffffffff821115613dee57613ded6141ba565b5b613df7826141e9565b9050602081019050919050565b600067ffffffffffffffff821115613e1f57613e1e6141ba565b5b613e28826141e9565b9050602081019050919050565b6000819050602082019050919050565b600081519050919050565b600081519050919050565b600081519050919050565b6000602082019050919050565b600082825260208201905092915050565b600082825260208201905092915050565b600082825260208201905092915050565b600081905092915050565b6000613ebc82613fd6565b9150613ec783613fd6565b9250827fffffffffffffffffffffffffffffffffffffffffffffffffffffffffffffffff03821115613efc57613efb61412d565b5b828201905092915050565b6000613f1282613fd6565b9150613f1d83613fd6565b925082613f2d57613f2c61415c565b5b828204905092915050565b6000613f4382613fd6565b9150613f4e83613fd6565b925082821015613f6157613f6061412d565b5b828203905092915050565b6000613f7782613fb6565b9050919050565b60008115159050919050565b60007fffffffff0000000000000000000000000000000000000000000000000000000082169050919050565b600073ffffffffffffffffffffffffffffffffffffffff82169050919050565b6000819050919050565b82818337600083830152505050565b60005b8381101561400d578082015181840152602081019050613ff2565b8381111561401c576000848401525b50505050565b6000600282049050600182168061403a57607f821691505b6020821081141561404e5761404d61418b565b5b50919050565b61405d826141e9565b810181811067ffffffffffffffff8211171561407c5761407b6141ba565b5b80604052505050565b600061409082613fd6565b91507fffffffffffffffffffffffffffffffffffffffffffffffffffffffffffffffff8214156140c3576140c261412d565b5b600182019050919050565b60006140d9826140e0565b9050919050565b60006140eb826141fa565b9050919050565b6000819050919050565b600061410782613fd6565b915061411283613fd6565b9250826141225761412161415c565b5b828206905092915050565b7f4e487b7100000000000000000000000000000000000000000000000000000000600052601160045260246000fd5b7f4e487b7100000000000000000000000000000000000000000000000000000000600052601260045260246000fd5b7f4e487b7100000000000000000000000000000000000000000000000000000000600052602260045260246000fd5b7f4e487b7100000000000000000000000000000000000000000000000000000000600052604160045260246000fd5b6000601f19601f8301169050919050565b60008160601b9050919050565b7f4f6e6c79207468652061646d696e2063616e20706572666f726d20746869732060008201527f616374696f6e0000000000000000000000000000000000000000000000000000602082015250565b7f4552433732313a207472616e7366657220746f206e6f6e20455243373231526560008201527f63656976657220696d706c656d656e7465720000000000000000000000000000602082015250565b7f4552433732313a20746f6b656e20616c7265616479206d696e74656400000000600082015250565b7f4e6f7420612076616c6964207265676973746572656420636c75620000000000600082015250565b7f4552433732313a207472616e7366657220746f20746865207a65726f2061646460008201527f7265737300000000000000000000000000000000000000000000000000000000602082015250565b7f4552433732313a20617070726f766520746f2063616c6c657200000000000000600082015250565b7f4552433732313a206f70657261746f7220717565727920666f72206e6f6e657860008201527f697374656e7420746f6b656e0000000000000000000000000000000000000000602082015250565b7f4e465420616c7265616479206372656174656400000000000000000000000000600082015250565b7f436c7562206e6f74207265676973746572656400000000000000000000000000600082015250565b7f4552433732313a20617070726f76652063616c6c6572206973206e6f74206f7760008201527f6e6572206e6f7220617070726f76656420666f7220616c6c0000000000000000602082015250565b7f4552433732313a2063616c6c6572206973206e6f7420746865206f776e65722060008201527f6f662074686520746f6b656e0000000000000000000000000000000000000000602082015250565b7f506c6179657220616c7265616479207265676973746572656400000000000000600082015250565b7f4552433732313a2062616c616e636520717565727920666f7220746865207a6560008201527f726f206164647265737300000000000000000000000000000000000000000000602082015250565b7f4552433732313a206f776e657220717565727920666f72206e6f6e657869737460008201527f656e7420746f6b656e0000000000000000000000000000000000000000000000602082015250565b7f496e76616c6964204e4654204944000000000000000000000000000000000000600082015250565b7f4552433732313a206d696e7420746f20746865207a65726f2061646472657373600082015250565b7f4552433732313a20617070726f76656420717565727920666f72206e6f6e657860008201527f697374656e7420746f6b656e0000000000000000000000000000000000000000602082015250565b7f4e4654206e6f74206c697374656420666f722073616c65000000000000000000600082015250565b7f4552433732313a207472616e73666572206f6620746f6b656e2074686174206960008201527f73206e6f74206f776e0000000000000000000000000000000000000000000000602082015250565b7f4552433732314d657461646174613a2055524920717565727920666f72206e6f60008201527f6e6578697374656e7420746f6b656e0000000000000000000000000000000000602082015250565b7f436c756220616c72656164792072656769737465726564000000000000000000600082015250565b7f4552433732313a20617070726f76616c20746f2063757272656e74206f776e6560008201527f7200000000000000000000000000000000000000000000000000000000000000602082015250565b7f4552433732313a207472616e736665722063616c6c6572206973206e6f74206f60008201527f776e6572206e6f7220617070726f766564000000000000000000000000000000602082015250565b7f506c61796572206e6f7420726567697374657265640000000000000000000000600082015250565b6147d681613f6c565b81146147e157600080fd5b50565b6147ed81613f7e565b81146147f857600080fd5b50565b61480481613f8a565b811461480f57600080fd5b50565b61481b81613fd6565b811461482657600080fd5b5056fea264697066735822122024aca12079de2ec415b26d29d3e09c5741ad9e114ae4cb8ef61eb14b4000a00364736f6c63430008010033",
  "immutableReferences": {},
  "source": "//SPDX-License-Identifier: UNLICENSED\npragma solidity ^0.8.0;\n\nimport \"@openzeppelin/contracts/token/ERC721/ERC721.sol\";\n\n\ncontract PlayerNFT is ERC721 {\n    address public admin;\n    mapping(address => Club) public clubs;\n    mapping(address => Player) public players;\n    mapping(uint256 => address[]) public tokenRequests;\n\n  \n    \n\n    struct Club {\n        string name;\n        string location;\n        address clubAddress;\n        address[] playerList;\n        bool isRegistered;\n    }\n\n    struct Player {\n        string name;\n        uint256 dateOfBirth;\n        uint256 contractLength;\n        uint256 salary;\n        uint256 playerRating;\n        uint256 form;\n        address playerAddress;\n        uint256 baseSellingPrice;\n        address currentClub;\n        bool isRegistered;\n        NFT nft;\n    }\n    \n    struct NFT {\n        bool isNFTforSale;\n        uint256 nftTokenId;\n        address currentNftOwner;\n    }\n\n    constructor() ERC721(\"PlayerNFT\", \"PNFT\") {\n        admin = msg.sender;\n    }\n\n    modifier onlyAdmin() {\n        require(msg.sender == admin, \"Only the admin can perform this action\");\n        _;\n    }\n\n\n    modifier onlyOwnerOf(uint256 tokenId) {\n    require(ownerOf(tokenId) == msg.sender, \"ERC721: caller is not the owner of the token\");\n    _;\n   }\n\n    modifier onlyRegisteredClubs() {\n    require(clubs[msg.sender].isRegistered, \"Not a valid registered club\");\n    _;\n   }\n\n   function sendTradeRequest(uint256 tokenId) public onlyRegisteredClubs {\n        bool alreadyExists = false;\n        for (uint i = 0; i < tokenRequests[tokenId].length; i++) {\n            if (tokenRequests[tokenId][i] == msg.sender) {\n                alreadyExists = true;\n                break;\n            }\n        }\n        if (!alreadyExists) {\n            tokenRequests[tokenId].push(msg.sender);\n        }\n    }\n\n    function getAllTradeRequests(uint256 tokenId) public view onlyOwnerOf(tokenId) returns (address[] memory) {\n        return tokenRequests[tokenId];\n    }\n\n    function registerClub(\n        string memory name,\n        string memory location\n    ) public {\n        require(!clubs[msg.sender].isRegistered, \"Club already registered\");\n        clubs[msg.sender] = Club(name, location, msg.sender, new address[](0), true);\n    }\n\n    function unregisterClub(address clubAddress) public onlyAdmin {\n        require(clubs[clubAddress].isRegistered, \"Club not registered\");\n        clubs[clubAddress].isRegistered = false;\n    }\n\n    function registerPlayer(\n        string memory name,\n        uint256 age,\n        uint256 contractLength,\n        uint256 salary,\n        uint256 playerRating,\n        uint256 form,\n        uint256 baseSellingPrice\n    ) public {\n        require(!players[msg.sender].isRegistered, \"Player already registered\");\n        players[msg.sender] = Player(\n            name,\n            age,\n            contractLength,\n            salary,\n            playerRating,\n            form,\n            msg.sender,\n            baseSellingPrice,\n            address(0),\n            true,\n            NFT(false, 0, address(0))\n        );\n    }\n\n    function unregisterPlayer(address playerAddress) public onlyAdmin {\n        require(players[playerAddress].isRegistered, \"Player not registered\");\n        players[playerAddress].isRegistered = false;\n    }    \n\n    function createPlayerNFT() public returns (uint256) {\n    require(players[msg.sender].isRegistered, \"Player not registered\");\n    require(players[msg.sender].nft.nftTokenId == 0, \"NFT already created\");\n\n    uint256 tokenId = uint256(keccak256(abi.encodePacked(msg.sender, block.timestamp)));\n    _safeMint(msg.sender, tokenId);\n    players[msg.sender].nft = NFT(true, tokenId, msg.sender);\n\n    return tokenId;\n   }\n\n//   function listPlayerNFTForSale(uint256 tokenId) public {\n//     require(players[msg.sender].nft.nftTokenId == tokenId, \"Player does not own this NFT\");\n//     require(players[msg.sender].nft.isNFTforSale == false, \"NFT already listed for sale\");\n\n//     players[msg.sender].nft.isNFTforSale = true;\n//  }\n\n \n\n function transferPlayerNFTTo(address clubAddress) public  {\n    require(clubs[clubAddress].isRegistered, \"Club not registered\");\n    require(players[msg.sender].nft.isNFTforSale, \"NFT not listed for sale\");\n    \n    uint256 tokenId = players[msg.sender].nft.nftTokenId;\n\n\n    safeTransferFrom( msg.sender, clubAddress, tokenId);\n    \n    players[msg.sender].nft = NFT(false, 0, address(0));\n    players[msg.sender].currentClub = clubAddress;\n}\n\n\n\nfunction getNFTOwner(uint256 tokenId) public view returns (address) {\n    require(_exists(tokenId), \"Invalid NFT ID\");\n    return ownerOf(tokenId);\n}\n\n}\n",
  "sourcePath": "/Users/swami/Documents/UB Docs/Asst/Spring 23/Blockchain/soccer-transfer-market/soccer-transfer-market-contract/contracts/PlayerNft.sol",
  "compiler": {
    "name": "solc",
    "version": "0.8.1+commit.df193b15.Emscripten.clang"
  },
  "schemaVersion": "3.4.13",
  "updatedAt": "2023-04-27T14:21:45.028Z",
  "devdoc": {
    "kind": "dev",
    "methods": {
      "approve(address,uint256)": {
        "details": "See {IERC721-approve}."
      },
      "balanceOf(address)": {
        "details": "See {IERC721-balanceOf}."
      },
      "getApproved(uint256)": {
        "details": "See {IERC721-getApproved}."
      },
      "isApprovedForAll(address,address)": {
        "details": "See {IERC721-isApprovedForAll}."
      },
      "name()": {
        "details": "See {IERC721Metadata-name}."
      },
      "ownerOf(uint256)": {
        "details": "See {IERC721-ownerOf}."
      },
      "safeTransferFrom(address,address,uint256)": {
        "details": "See {IERC721-safeTransferFrom}."
      },
      "safeTransferFrom(address,address,uint256,bytes)": {
        "details": "See {IERC721-safeTransferFrom}."
      },
      "setApprovalForAll(address,bool)": {
        "details": "See {IERC721-setApprovalForAll}."
      },
      "supportsInterface(bytes4)": {
        "details": "See {IERC165-supportsInterface}."
      },
      "symbol()": {
        "details": "See {IERC721Metadata-symbol}."
      },
      "tokenURI(uint256)": {
        "details": "See {IERC721Metadata-tokenURI}."
      },
      "transferFrom(address,address,uint256)": {
        "details": "See {IERC721-transferFrom}."
      }
    },
    "version": 1
  },
  "userdoc": {
    "kind": "user",
    "methods": {},
    "version": 1
  }
}