{
  "contractName": "PlayerAuction",
  "abi": [
    {
      "inputs": [],
      "stateMutability": "nonpayable",
      "type": "constructor"
    },
    {
      "anonymous": false,
      "inputs": [
        {
          "indexed": true,
          "internalType": "address",
          "name": "owner",
          "type": "address"
        },
        {
          "indexed": true,
          "internalType": "address",
          "name": "approved",
          "type": "address"
        },
        {
          "indexed": true,
          "internalType": "uint256",
          "name": "tokenId",
          "type": "uint256"
        }
      ],
      "name": "Approval",
      "type": "event"
    },
    {
      "anonymous": false,
      "inputs": [
        {
          "indexed": true,
          "internalType": "address",
          "name": "owner",
          "type": "address"
        },
        {
          "indexed": true,
          "internalType": "address",
          "name": "operator",
          "type": "address"
        },
        {
          "indexed": false,
          "internalType": "bool",
          "name": "approved",
          "type": "bool"
        }
      ],
      "name": "ApprovalForAll",
      "type": "event"
    },
    {
      "anonymous": false,
      "inputs": [
        {
          "indexed": true,
          "internalType": "address",
          "name": "seller",
          "type": "address"
        },
        {
          "indexed": true,
          "internalType": "address",
          "name": "buyer",
          "type": "address"
        },
        {
          "indexed": true,
          "internalType": "uint256",
          "name": "playerId",
          "type": "uint256"
        },
        {
          "indexed": false,
          "internalType": "uint256",
          "name": "amount",
          "type": "uint256"
        }
      ],
      "name": "BidAccepted",
      "type": "event"
    },
    {
      "anonymous": false,
      "inputs": [
        {
          "indexed": true,
          "internalType": "address",
          "name": "bidder",
          "type": "address"
        },
        {
          "indexed": true,
          "internalType": "uint256",
          "name": "playerId",
          "type": "uint256"
        },
        {
          "indexed": false,
          "internalType": "uint256",
          "name": "amount",
          "type": "uint256"
        }
      ],
      "name": "BidPlaced",
      "type": "event"
    },
    {
      "anonymous": false,
      "inputs": [
        {
          "indexed": true,
          "internalType": "address",
          "name": "buyer",
          "type": "address"
        },
        {
          "indexed": true,
          "internalType": "uint256",
          "name": "playerId",
          "type": "uint256"
        },
        {
          "indexed": false,
          "internalType": "uint256",
          "name": "amount",
          "type": "uint256"
        }
      ],
      "name": "BidRejected",
      "type": "event"
    },
    {
      "anonymous": false,
      "inputs": [
        {
          "indexed": true,
          "internalType": "address",
          "name": "club",
          "type": "address"
        }
      ],
      "name": "ClubRegistered",
      "type": "event"
    },
    {
      "anonymous": false,
      "inputs": [
        {
          "indexed": true,
          "internalType": "uint256",
          "name": "playerId",
          "type": "uint256"
        }
      ],
      "name": "PlayerPutOnSale",
      "type": "event"
    },
    {
      "anonymous": false,
      "inputs": [
        {
          "indexed": true,
          "internalType": "address",
          "name": "player",
          "type": "address"
        },
        {
          "indexed": true,
          "internalType": "uint256",
          "name": "playerId",
          "type": "uint256"
        }
      ],
      "name": "PlayerRegistered",
      "type": "event"
    },
    {
      "anonymous": false,
      "inputs": [
        {
          "indexed": true,
          "internalType": "address",
          "name": "player",
          "type": "address"
        }
      ],
      "name": "PlayerUnregistered",
      "type": "event"
    },
    {
      "anonymous": false,
      "inputs": [
        {
          "indexed": true,
          "internalType": "address",
          "name": "from",
          "type": "address"
        },
        {
          "indexed": true,
          "internalType": "address",
          "name": "to",
          "type": "address"
        },
        {
          "indexed": true,
          "internalType": "uint256",
          "name": "tokenId",
          "type": "uint256"
        }
      ],
      "name": "Transfer",
      "type": "event"
    },
    {
      "anonymous": false,
      "inputs": [
        {
          "indexed": true,
          "internalType": "uint256",
          "name": "playerId",
          "type": "uint256"
        }
      ],
      "name": "playerOwnershipTransfered",
      "type": "event"
    },
    {
      "inputs": [
        {
          "internalType": "address",
          "name": "to",
          "type": "address"
        },
        {
          "internalType": "uint256",
          "name": "tokenId",
          "type": "uint256"
        }
      ],
      "name": "approve",
      "outputs": [],
      "stateMutability": "nonpayable",
      "type": "function"
    },
    {
      "inputs": [
        {
          "internalType": "address",
          "name": "owner",
          "type": "address"
        }
      ],
      "name": "balanceOf",
      "outputs": [
        {
          "internalType": "uint256",
          "name": "",
          "type": "uint256"
        }
      ],
      "stateMutability": "view",
      "type": "function",
      "constant": true
    },
    {
      "inputs": [
        {
          "internalType": "uint256",
          "name": "",
          "type": "uint256"
        },
        {
          "internalType": "uint256",
          "name": "",
          "type": "uint256"
        }
      ],
      "name": "bids",
      "outputs": [
        {
          "internalType": "address",
          "name": "bidder",
          "type": "address"
        },
        {
          "internalType": "uint256",
          "name": "amount",
          "type": "uint256"
        },
        {
          "internalType": "enum PlayerAuction.BidState",
          "name": "bidStatus",
          "type": "uint8"
        }
      ],
      "stateMutability": "view",
      "type": "function",
      "constant": true
    },
    {
      "inputs": [
        {
          "internalType": "uint256",
          "name": "tokenId",
          "type": "uint256"
        }
      ],
      "name": "getApproved",
      "outputs": [
        {
          "internalType": "address",
          "name": "",
          "type": "address"
        }
      ],
      "stateMutability": "view",
      "type": "function",
      "constant": true
    },
    {
      "inputs": [
        {
          "internalType": "address",
          "name": "owner",
          "type": "address"
        },
        {
          "internalType": "address",
          "name": "operator",
          "type": "address"
        }
      ],
      "name": "isApprovedForAll",
      "outputs": [
        {
          "internalType": "bool",
          "name": "",
          "type": "bool"
        }
      ],
      "stateMutability": "view",
      "type": "function",
      "constant": true
    },
    {
      "inputs": [],
      "name": "name",
      "outputs": [
        {
          "internalType": "string",
          "name": "",
          "type": "string"
        }
      ],
      "stateMutability": "view",
      "type": "function",
      "constant": true
    },
    {
      "inputs": [],
      "name": "numPlayers",
      "outputs": [
        {
          "internalType": "uint256",
          "name": "",
          "type": "uint256"
        }
      ],
      "stateMutability": "view",
      "type": "function",
      "constant": true
    },
    {
      "inputs": [],
      "name": "owner",
      "outputs": [
        {
          "internalType": "address",
          "name": "",
          "type": "address"
        }
      ],
      "stateMutability": "view",
      "type": "function",
      "constant": true
    },
    {
      "inputs": [
        {
          "internalType": "uint256",
          "name": "tokenId",
          "type": "uint256"
        }
      ],
      "name": "ownerOf",
      "outputs": [
        {
          "internalType": "address",
          "name": "",
          "type": "address"
        }
      ],
      "stateMutability": "view",
      "type": "function",
      "constant": true
    },
    {
      "inputs": [
        {
          "internalType": "uint256",
          "name": "",
          "type": "uint256"
        }
      ],
      "name": "playerAddress",
      "outputs": [
        {
          "internalType": "address",
          "name": "",
          "type": "address"
        }
      ],
      "stateMutability": "view",
      "type": "function",
      "constant": true
    },
    {
      "inputs": [
        {
          "internalType": "uint256",
          "name": "",
          "type": "uint256"
        }
      ],
      "name": "playerOnSale",
      "outputs": [
        {
          "internalType": "bool",
          "name": "",
          "type": "bool"
        }
      ],
      "stateMutability": "view",
      "type": "function",
      "constant": true
    },
    {
      "inputs": [
        {
          "internalType": "uint256",
          "name": "",
          "type": "uint256"
        }
      ],
      "name": "playerOwners",
      "outputs": [
        {
          "internalType": "address",
          "name": "",
          "type": "address"
        }
      ],
      "stateMutability": "view",
      "type": "function",
      "constant": true
    },
    {
      "inputs": [
        {
          "internalType": "uint256",
          "name": "",
          "type": "uint256"
        }
      ],
      "name": "playerPrices",
      "outputs": [
        {
          "internalType": "uint256",
          "name": "",
          "type": "uint256"
        }
      ],
      "stateMutability": "view",
      "type": "function",
      "constant": true
    },
    {
      "inputs": [
        {
          "internalType": "uint256",
          "name": "",
          "type": "uint256"
        }
      ],
      "name": "playerTransferred",
      "outputs": [
        {
          "internalType": "bool",
          "name": "",
          "type": "bool"
        }
      ],
      "stateMutability": "view",
      "type": "function",
      "constant": true
    },
    {
      "inputs": [
        {
          "internalType": "address",
          "name": "",
          "type": "address"
        }
      ],
      "name": "registeredClubs",
      "outputs": [
        {
          "internalType": "bool",
          "name": "",
          "type": "bool"
        }
      ],
      "stateMutability": "view",
      "type": "function",
      "constant": true
    },
    {
      "inputs": [
        {
          "internalType": "address",
          "name": "",
          "type": "address"
        }
      ],
      "name": "registeredPlayers",
      "outputs": [
        {
          "internalType": "bool",
          "name": "",
          "type": "bool"
        }
      ],
      "stateMutability": "view",
      "type": "function",
      "constant": true
    },
    {
      "inputs": [
        {
          "internalType": "address",
          "name": "from",
          "type": "address"
        },
        {
          "internalType": "address",
          "name": "to",
          "type": "address"
        },
        {
          "internalType": "uint256",
          "name": "tokenId",
          "type": "uint256"
        }
      ],
      "name": "safeTransferFrom",
      "outputs": [],
      "stateMutability": "nonpayable",
      "type": "function"
    },
    {
      "inputs": [
        {
          "internalType": "address",
          "name": "from",
          "type": "address"
        },
        {
          "internalType": "address",
          "name": "to",
          "type": "address"
        },
        {
          "internalType": "uint256",
          "name": "tokenId",
          "type": "uint256"
        },
        {
          "internalType": "bytes",
          "name": "_data",
          "type": "bytes"
        }
      ],
      "name": "safeTransferFrom",
      "outputs": [],
      "stateMutability": "nonpayable",
      "type": "function"
    },
    {
      "inputs": [
        {
          "internalType": "address",
          "name": "operator",
          "type": "address"
        },
        {
          "internalType": "bool",
          "name": "approved",
          "type": "bool"
        }
      ],
      "name": "setApprovalForAll",
      "outputs": [],
      "stateMutability": "nonpayable",
      "type": "function"
    },
    {
      "inputs": [
        {
          "internalType": "bytes4",
          "name": "interfaceId",
          "type": "bytes4"
        }
      ],
      "name": "supportsInterface",
      "outputs": [
        {
          "internalType": "bool",
          "name": "",
          "type": "bool"
        }
      ],
      "stateMutability": "view",
      "type": "function",
      "constant": true
    },
    {
      "inputs": [],
      "name": "symbol",
      "outputs": [
        {
          "internalType": "string",
          "name": "",
          "type": "string"
        }
      ],
      "stateMutability": "view",
      "type": "function",
      "constant": true
    },
    {
      "inputs": [
        {
          "internalType": "uint256",
          "name": "tokenId",
          "type": "uint256"
        }
      ],
      "name": "tokenURI",
      "outputs": [
        {
          "internalType": "string",
          "name": "",
          "type": "string"
        }
      ],
      "stateMutability": "view",
      "type": "function",
      "constant": true
    },
    {
      "inputs": [
        {
          "internalType": "address",
          "name": "from",
          "type": "address"
        },
        {
          "internalType": "address",
          "name": "to",
          "type": "address"
        },
        {
          "internalType": "uint256",
          "name": "tokenId",
          "type": "uint256"
        }
      ],
      "name": "transferFrom",
      "outputs": [],
      "stateMutability": "nonpayable",
      "type": "function"
    },
    {
      "inputs": [],
      "name": "registerClub",
      "outputs": [],
      "stateMutability": "nonpayable",
      "type": "function"
    },
    {
      "inputs": [
        {
          "internalType": "address",
          "name": "playerAdd",
          "type": "address"
        },
        {
          "internalType": "uint256",
          "name": "playerId",
          "type": "uint256"
        }
      ],
      "name": "registerPlayer",
      "outputs": [],
      "stateMutability": "nonpayable",
      "type": "function"
    },
    {
      "inputs": [
        {
          "internalType": "address",
          "name": "player",
          "type": "address"
        }
      ],
      "name": "unRegisterPlayer",
      "outputs": [],
      "stateMutability": "nonpayable",
      "type": "function"
    },
    {
      "inputs": [
        {
          "internalType": "uint256",
          "name": "playerId",
          "type": "uint256"
        }
      ],
      "name": "putPlayerOnSale",
      "outputs": [],
      "stateMutability": "nonpayable",
      "type": "function"
    },
    {
      "inputs": [
        {
          "internalType": "uint256",
          "name": "playerId",
          "type": "uint256"
        }
      ],
      "name": "placeBid",
      "outputs": [],
      "stateMutability": "payable",
      "type": "function",
      "payable": true
    },
    {
      "inputs": [
        {
          "internalType": "uint256",
          "name": "playerId",
          "type": "uint256"
        },
        {
          "internalType": "address",
          "name": "buyer",
          "type": "address"
        },
        {
          "internalType": "uint256",
          "name": "amount",
          "type": "uint256"
        }
      ],
      "name": "acceptBid",
      "outputs": [],
      "stateMutability": "nonpayable",
      "type": "function"
    },
    {
      "inputs": [
        {
          "internalType": "uint256",
          "name": "playerId",
          "type": "uint256"
        },
        {
          "internalType": "address",
          "name": "buyer",
          "type": "address"
        },
        {
          "internalType": "uint256",
          "name": "amount",
          "type": "uint256"
        }
      ],
      "name": "rejectBid",
      "outputs": [],
      "stateMutability": "nonpayable",
      "type": "function"
    },
    {
      "inputs": [
        {
          "internalType": "address",
          "name": "bidder",
          "type": "address"
        },
        {
          "internalType": "uint256",
          "name": "playerId",
          "type": "uint256"
        },
        {
          "internalType": "uint256",
          "name": "amt",
          "type": "uint256"
        }
      ],
      "name": "findBidIndex",
      "outputs": [
        {
          "internalType": "uint256",
          "name": "",
          "type": "uint256"
        }
      ],
      "stateMutability": "view",
      "type": "function",
      "constant": true
    },
    {
      "inputs": [
        {
          "internalType": "uint256",
          "name": "playerId",
          "type": "uint256"
        }
      ],
      "name": "transferOwnership",
      "outputs": [],
      "stateMutability": "nonpayable",
      "type": "function"
    },
    {
      "inputs": [
        {
          "internalType": "uint256",
          "name": "playerId",
          "type": "uint256"
        }
      ],
      "name": "getPlayerOwner",
      "outputs": [
        {
          "internalType": "address",
          "name": "",
          "type": "address"
        }
      ],
      "stateMutability": "view",
      "type": "function",
      "constant": true
    },
    {
      "inputs": [
        {
          "internalType": "uint256",
          "name": "playerId",
          "type": "uint256"
        }
      ],
      "name": "getAllBids",
      "outputs": [
        {
          "components": [
            {
              "internalType": "address",
              "name": "bidder",
              "type": "address"
            },
            {
              "internalType": "uint256",
              "name": "amount",
              "type": "uint256"
            },
            {
              "internalType": "enum PlayerAuction.BidState",
              "name": "bidStatus",
              "type": "uint8"
            }
          ],
          "internalType": "struct PlayerAuction.Bid[]",
          "name": "",
          "type": "tuple[]"
        }
      ],
      "stateMutability": "view",
      "type": "function",
      "constant": true
    }
  ],
  "bytecode": "0x60806040523480156200001157600080fd5b506040518060400160405280600d81526020017f536f6363657220506c61796572000000000000000000000000000000000000008152506040518060400160405280600281526020017f5350000000000000000000000000000000000000000000000000000000000000815250816000908051906020019062000096929190620000f9565b508060019080519060200190620000af929190620000f9565b50505033600660006101000a81548173ffffffffffffffffffffffffffffffffffffffff021916908373ffffffffffffffffffffffffffffffffffffffff1602179055506200020e565b8280546200010790620001a9565b90600052602060002090601f0160209004810192826200012b576000855562000177565b82601f106200014657805160ff191683800117855562000177565b8280016001018555821562000177579182015b828111156200017657825182559160200191906001019062000159565b5b5090506200018691906200018a565b5090565b5b80821115620001a55760008160009055506001016200018b565b5090565b60006002820490506001821680620001c257607f821691505b60208210811415620001d957620001d8620001df565b5b50919050565b7f4e487b7100000000000000000000000000000000000000000000000000000000600052602260045260246000fd5b614d27806200021e6000396000f3fe6080604052600436106101f95760003560e01c80638da5cb5b1161010d578063af8ee37f116100a0578063d23e84891161006f578063d23e8489146107cc578063d6be9dca146107f5578063de0ba2581461080c578063e169e1ea14610849578063e985e9c514610872576101f9565b8063af8ee37f14610714578063b88d4fde1461073d578063c7e776f714610766578063c87b56dd1461078f576101f9565b80639979ef45116100dc5780639979ef45146106695780639aabe36d14610685578063a22cb465146106ae578063a528ff83146106d7576101f9565b80638da5cb5b146105ab57806395d89b41146105d657806396b4f6061461060157806397b2f5561461063e576101f9565b806334429a471161019057806356c26f251161015f57806356c26f251461048c5780636352211e146104c957806370a08231146105065780637b3c4baa1461054357806382dc226114610582576101f9565b806334429a47146103ac57806342842e0e146103e9578063483778a2146104125780634bafce221461044f576101f9565b8063095ea7b3116101cc578063095ea7b3146102e05780630c64592c14610309578063181e40691461034657806323b872dd14610383576101f9565b806301ffc9a7146101fe57806303ff66f81461023b57806306fdde0314610278578063081812fc146102a3575b600080fd5b34801561020a57600080fd5b5061022560048036038101906102209190613894565b6108af565b6040516102329190613f67565b60405180910390f35b34801561024757600080fd5b50610262600480360381019061025d91906138e6565b610991565b60405161026f9190613f67565b60405180910390f35b34801561028457600080fd5b5061028d6109b1565b60405161029a9190613f82565b60405180910390f35b3480156102af57600080fd5b506102ca60048036038101906102c591906138e6565b610a43565b6040516102d79190613ea7565b60405180910390f35b3480156102ec57600080fd5b5061030760048036038101906103029190613809565b610ac8565b005b34801561031557600080fd5b50610330600480360381019061032b91906138e6565b610be0565b60405161033d9190613ea7565b60405180910390f35b34801561035257600080fd5b5061036d600480360381019061036891906138e6565b610c13565b60405161037a9190614284565b60405180910390f35b34801561038f57600080fd5b506103aa60048036038101906103a59190613703565b610c2b565b005b3480156103b857600080fd5b506103d360048036038101906103ce91906138e6565b610c8b565b6040516103e09190613f67565b60405180910390f35b3480156103f557600080fd5b50610410600480360381019061040b9190613703565b610cab565b005b34801561041e57600080fd5b5061043960048036038101906104349190613845565b610ccb565b6040516104469190614284565b60405180910390f35b34801561045b57600080fd5b506104766004803603810190610471919061369e565b610e45565b6040516104839190613f67565b60405180910390f35b34801561049857600080fd5b506104b360048036038101906104ae91906138e6565b610e65565b6040516104c09190613ea7565b60405180910390f35b3480156104d557600080fd5b506104f060048036038101906104eb91906138e6565b610ea2565b6040516104fd9190613ea7565b60405180910390f35b34801561051257600080fd5b5061052d6004803603810190610528919061369e565b610f54565b60405161053a9190614284565b60405180910390f35b34801561054f57600080fd5b5061056a6004803603810190610565919061395e565b61100c565b60405161057993929190613f0e565b60405180910390f35b34801561058e57600080fd5b506105a960048036038101906105a4919061369e565b611080565b005b3480156105b757600080fd5b506105c0611252565b6040516105cd9190613ea7565b60405180910390f35b3480156105e257600080fd5b506105eb611278565b6040516105f89190613f82565b60405180910390f35b34801561060d57600080fd5b50610628600480360381019061062391906138e6565b61130a565b6040516106359190613ea7565b60405180910390f35b34801561064a57600080fd5b5061065361133d565b6040516106609190614284565b60405180910390f35b610683600480360381019061067e91906138e6565b611343565b005b34801561069157600080fd5b506106ac60048036038101906106a79190613809565b6115e8565b005b3480156106ba57600080fd5b506106d560048036038101906106d091906137cd565b6118d6565b005b3480156106e357600080fd5b506106fe60048036038101906106f991906138e6565b6118ec565b60405161070b9190613f45565b60405180910390f35b34801561072057600080fd5b5061073b6004803603810190610736919061390f565b611a45565b005b34801561074957600080fd5b50610764600480360381019061075f9190613752565b611d91565b005b34801561077257600080fd5b5061078d6004803603810190610788919061390f565b611df3565b005b34801561079b57600080fd5b506107b660048036038101906107b191906138e6565b6120ca565b6040516107c39190613f82565b60405180910390f35b3480156107d857600080fd5b506107f360048036038101906107ee91906138e6565b612171565b005b34801561080157600080fd5b5061080a612393565b005b34801561081857600080fd5b50610833600480360381019061082e919061369e565b612430565b6040516108409190613f67565b60405180910390f35b34801561085557600080fd5b50610870600480360381019061086b91906138e6565b612450565b005b34801561087e57600080fd5b50610899600480360381019061089491906136c7565b61260e565b6040516108a69190613f67565b60405180910390f35b60007f80ac58cd000000000000000000000000000000000000000000000000000000007bffffffffffffffffffffffffffffffffffffffffffffffffffffffff1916827bffffffffffffffffffffffffffffffffffffffffffffffffffffffff1916148061097a57507f5b5e139f000000000000000000000000000000000000000000000000000000007bffffffffffffffffffffffffffffffffffffffffffffffffffffffff1916827bffffffffffffffffffffffffffffffffffffffffffffffffffffffff1916145b8061098a5750610989826126a2565b5b9050919050565b600c6020528060005260406000206000915054906101000a900460ff1681565b6060600080546109c090614531565b80601f01602080910402602001604051908101604052809291908181526020018280546109ec90614531565b8015610a395780601f10610a0e57610100808354040283529160200191610a39565b820191906000526020600020905b815481529060010190602001808311610a1c57829003601f168201915b5050505050905090565b6000610a4e8261270c565b610a8d576040517f08c379a0000000000000000000000000000000000000000000000000000000008152600401610a8490614144565b60405180910390fd5b6004600083815260200190815260200160002060009054906101000a900473ffffffffffffffffffffffffffffffffffffffff169050919050565b6000610ad382610ea2565b90508073ffffffffffffffffffffffffffffffffffffffff168373ffffffffffffffffffffffffffffffffffffffff161415610b44576040517f08c379a0000000000000000000000000000000000000000000000000000000008152600401610b3b906141e4565b60405180910390fd5b8073ffffffffffffffffffffffffffffffffffffffff16610b63612778565b73ffffffffffffffffffffffffffffffffffffffff161480610b925750610b9181610b8c612778565b61260e565b5b610bd1576040517f08c379a0000000000000000000000000000000000000000000000000000000008152600401610bc8906140c4565b60405180910390fd5b610bdb8383612780565b505050565b60096020528060005260406000206000915054906101000a900473ffffffffffffffffffffffffffffffffffffffff1681565b600a6020528060005260406000206000915090505481565b610c3c610c36612778565b82612839565b610c7b576040517f08c379a0000000000000000000000000000000000000000000000000000000008152600401610c7290614224565b60405180910390fd5b610c86838383612917565b505050565b600d6020528060005260406000206000915054906101000a900460ff1681565b610cc683838360405180602001604052806000815250611d91565b505050565b600080600e6000858152602001908152602001600020905060005b8180549050811015610e02578573ffffffffffffffffffffffffffffffffffffffff16828281548110610d42577f4e487b7100000000000000000000000000000000000000000000000000000000600052603260045260246000fd5b906000526020600020906003020160000160009054906101000a900473ffffffffffffffffffffffffffffffffffffffff1673ffffffffffffffffffffffffffffffffffffffff16148015610de0575083828281548110610dcc577f4e487b7100000000000000000000000000000000000000000000000000000000600052603260045260246000fd5b906000526020600020906003020160010154145b15610def578092505050610e3e565b8080610dfa90614594565b915050610ce6565b506040517f08c379a0000000000000000000000000000000000000000000000000000000008152600401610e3590614004565b60405180910390fd5b9392505050565b60086020528060005260406000206000915054906101000a900460ff1681565b6000600b600083815260200190815260200160002060009054906101000a900473ffffffffffffffffffffffffffffffffffffffff169050919050565b6000806002600084815260200190815260200160002060009054906101000a900473ffffffffffffffffffffffffffffffffffffffff169050600073ffffffffffffffffffffffffffffffffffffffff168173ffffffffffffffffffffffffffffffffffffffff161415610f4b576040517f08c379a0000000000000000000000000000000000000000000000000000000008152600401610f4290614104565b60405180910390fd5b80915050919050565b60008073ffffffffffffffffffffffffffffffffffffffff168273ffffffffffffffffffffffffffffffffffffffff161415610fc5576040517f08c379a0000000000000000000000000000000000000000000000000000000008152600401610fbc906140e4565b60405180910390fd5b600360008373ffffffffffffffffffffffffffffffffffffffff1673ffffffffffffffffffffffffffffffffffffffff168152602001908152602001600020549050919050565b600e602052816000526040600020818154811061102857600080fd5b9060005260206000209060030201600091509150508060000160009054906101000a900473ffffffffffffffffffffffffffffffffffffffff16908060010154908060020160009054906101000a900460ff16905083565b600660009054906101000a900473ffffffffffffffffffffffffffffffffffffffff1673ffffffffffffffffffffffffffffffffffffffff163373ffffffffffffffffffffffffffffffffffffffff1614611110576040517f08c379a000000000000000000000000000000000000000000000000000000000815260040161110790613fa4565b60405180910390fd5b600860008273ffffffffffffffffffffffffffffffffffffffff1673ffffffffffffffffffffffffffffffffffffffff16815260200190815260200160002060009054906101000a900460ff1661119c576040517f08c379a0000000000000000000000000000000000000000000000000000000008152600401611193906141c4565b60405180910390fd5b600f60008154809291906111af90614507565b91905055506000600860008373ffffffffffffffffffffffffffffffffffffffff1673ffffffffffffffffffffffffffffffffffffffff16815260200190815260200160002060006101000a81548160ff0219169083151502179055508073ffffffffffffffffffffffffffffffffffffffff167fccff9c7c0158096f8ead4d02d79c4472cfba392cbffe7e09a0e2158a6a0cc22f60405160405180910390a250565b600660009054906101000a900473ffffffffffffffffffffffffffffffffffffffff1681565b60606001805461128790614531565b80601f01602080910402602001604051908101604052809291908181526020018280546112b390614531565b80156113005780601f106112d557610100808354040283529160200191611300565b820191906000526020600020905b8154815290600101906020018083116112e357829003601f168201915b5050505050905090565b600b6020528060005260406000206000915054906101000a900473ffffffffffffffffffffffffffffffffffffffff1681565b600f5481565b80600c600082815260200190815260200160002060009054906101000a900460ff166113a4576040517f08c379a000000000000000000000000000000000000000000000000000000000815260040161139b90614204565b60405180910390fd5b600b600083815260200190815260200160002060009054906101000a900473ffffffffffffffffffffffffffffffffffffffff1673ffffffffffffffffffffffffffffffffffffffff163373ffffffffffffffffffffffffffffffffffffffff161415611446576040517f08c379a000000000000000000000000000000000000000000000000000000000815260040161143d90614264565b60405180910390fd5b600e600083815260200190815260200160002060405180606001604052803373ffffffffffffffffffffffffffffffffffffffff168152602001348152602001600060028111156114c0577f4e487b7100000000000000000000000000000000000000000000000000000000600052602160045260246000fd5b815250908060018154018082558091505060019003906000526020600020906003020160009091909190915060008201518160000160006101000a81548173ffffffffffffffffffffffffffffffffffffffff021916908373ffffffffffffffffffffffffffffffffffffffff1602179055506020820151816001015560408201518160020160006101000a81548160ff0219169083600281111561158e577f4e487b7100000000000000000000000000000000000000000000000000000000600052602160045260246000fd5b02179055505050813373ffffffffffffffffffffffffffffffffffffffff167fdf8644c0a4c21ed214ce69f395675b3a5fcd1039083daea5058898de40ea3149346040516115dc9190614284565b60405180910390a35050565b600860008373ffffffffffffffffffffffffffffffffffffffff1673ffffffffffffffffffffffffffffffffffffffff16815260200190815260200160002060009054906101000a900460ff1615611675576040517f08c379a000000000000000000000000000000000000000000000000000000000815260040161166c90614084565b60405180910390fd5b600073ffffffffffffffffffffffffffffffffffffffff166009600083815260200190815260200160002060009054906101000a900473ffffffffffffffffffffffffffffffffffffffff1673ffffffffffffffffffffffffffffffffffffffff1614611717576040517f08c379a000000000000000000000000000000000000000000000000000000000815260040161170e90614164565b60405180910390fd5b6001600860008473ffffffffffffffffffffffffffffffffffffffff1673ffffffffffffffffffffffffffffffffffffffff16815260200190815260200160002060006101000a81548160ff021916908315150217905550600f600081548092919061178290614594565b9190505550816009600083815260200190815260200160002060006101000a81548173ffffffffffffffffffffffffffffffffffffffff021916908373ffffffffffffffffffffffffffffffffffffffff16021790555033600b600083815260200190815260200160002060006101000a81548173ffffffffffffffffffffffffffffffffffffffff021916908373ffffffffffffffffffffffffffffffffffffffff1602179055506118353382612b73565b6001600c600083815260200190815260200160002060006101000a81548160ff021916908315150217905550808273ffffffffffffffffffffffffffffffffffffffff167f324cb0062138d65997c86cd3012489ceb351d602f2f55c7408306e8040c79f3f60405160405180910390a3807f24351efe427e252508866c25440a9fbd729b754f0a5d7b525b0dfd726309ad5a60405160405180910390a25050565b6118e86118e1612778565b8383612b91565b5050565b6060600e6000838152602001908152602001600020805480602002602001604051908101604052809291908181526020016000905b82821015611a3a57838290600052602060002090600302016040518060600160405290816000820160009054906101000a900473ffffffffffffffffffffffffffffffffffffffff1673ffffffffffffffffffffffffffffffffffffffff1673ffffffffffffffffffffffffffffffffffffffff168152602001600182015481526020016002820160009054906101000a900460ff1660028111156119ef577f4e487b7100000000000000000000000000000000000000000000000000000000600052602160045260246000fd5b6002811115611a27577f4e487b7100000000000000000000000000000000000000000000000000000000600052602160045260246000fd5b8152505081526020019060010190611921565b505050509050919050565b82600c600082815260200190815260200160002060009054906101000a900460ff16611aa6576040517f08c379a0000000000000000000000000000000000000000000000000000000008152600401611a9d90614204565b60405180910390fd5b83600b600082815260200190815260200160002060009054906101000a900473ffffffffffffffffffffffffffffffffffffffff1673ffffffffffffffffffffffffffffffffffffffff163373ffffffffffffffffffffffffffffffffffffffff1614611b48576040517f08c379a0000000000000000000000000000000000000000000000000000000008152600401611b3f90614244565b60405180910390fd5b600084905060003390506000611b5f878988610ccb565b90506001600e60008a81526020019081526020016000208281548110611bae577f4e487b7100000000000000000000000000000000000000000000000000000000600052603260045260246000fd5b906000526020600020906003020160020160006101000a81548160ff02191690836002811115611c07577f4e487b7100000000000000000000000000000000000000000000000000000000600052602160045260246000fd5b0217905550611c4a600b60008a815260200190815260200160002060009054906101000a900473ffffffffffffffffffffffffffffffffffffffff16848a610c2b565b60008614611c9a578173ffffffffffffffffffffffffffffffffffffffff166108fc879081150290604051600060405180830381858888f19350505050158015611c98573d6000803e3d6000fd5b505b82600b60008a815260200190815260200160002060006101000a81548173ffffffffffffffffffffffffffffffffffffffff021916908373ffffffffffffffffffffffffffffffffffffffff1602179055506000600c60008a815260200190815260200160002060006101000a81548160ff021916908315150217905550611d2188612cfe565b878773ffffffffffffffffffffffffffffffffffffffff168373ffffffffffffffffffffffffffffffffffffffff167fc94b51939529c736abed465cef9c3c3cacd78ac7ee0855a967ef32f07935abec89604051611d7f9190614284565b60405180910390a45050505050505050565b611da2611d9c612778565b83612839565b611de1576040517f08c379a0000000000000000000000000000000000000000000000000000000008152600401611dd890614224565b60405180910390fd5b611ded84848484612f57565b50505050565b82600c600082815260200190815260200160002060009054906101000a900460ff16611e54576040517f08c379a0000000000000000000000000000000000000000000000000000000008152600401611e4b90614204565b60405180910390fd5b83600b600082815260200190815260200160002060009054906101000a900473ffffffffffffffffffffffffffffffffffffffff1673ffffffffffffffffffffffffffffffffffffffff163373ffffffffffffffffffffffffffffffffffffffff1614611ef6576040517f08c379a0000000000000000000000000000000000000000000000000000000008152600401611eed90614244565b60405180910390fd5b6000611f03858786610ccb565b90506002600e60008881526020019081526020016000208281548110611f52577f4e487b7100000000000000000000000000000000000000000000000000000000600052603260045260246000fd5b906000526020600020906003020160020160006101000a81548160ff02191690836002811115611fab577f4e487b7100000000000000000000000000000000000000000000000000000000600052602160045260246000fd5b0217905550600e60008781526020019081526020016000208181548110611ffb577f4e487b7100000000000000000000000000000000000000000000000000000000600052603260045260246000fd5b906000526020600020906003020160000160009054906101000a900473ffffffffffffffffffffffffffffffffffffffff1673ffffffffffffffffffffffffffffffffffffffff166108fc859081150290604051600060405180830381858888f19350505050158015612072573d6000803e3d6000fd5b50858573ffffffffffffffffffffffffffffffffffffffff167fad3f08bcf990036015126ecde8b24bcaf0f023ece512a4aba4a96fadbaa0cf2d866040516120ba9190614284565b60405180910390a3505050505050565b60606120d58261270c565b612114576040517f08c379a000000000000000000000000000000000000000000000000000000000815260040161210b906141a4565b60405180910390fd5b600061211e612fb3565b9050600081511161213e5760405180602001604052806000815250612169565b8061214884612fca565b604051602001612159929190613e83565b6040516020818303038152906040525b915050919050565b80600b600082815260200190815260200160002060009054906101000a900473ffffffffffffffffffffffffffffffffffffffff1673ffffffffffffffffffffffffffffffffffffffff163373ffffffffffffffffffffffffffffffffffffffff1614612213576040517f08c379a000000000000000000000000000000000000000000000000000000000815260040161220a90614244565b60405180910390fd5b612284600b600084815260200190815260200160002060009054906101000a900473ffffffffffffffffffffffffffffffffffffffff166009600085815260200190815260200160002060009054906101000a900473ffffffffffffffffffffffffffffffffffffffff1684610c2b565b6001600c600084815260200190815260200160002060006101000a81548160ff0219169083151502179055506009600083815260200190815260200160002060009054906101000a900473ffffffffffffffffffffffffffffffffffffffff16600b600084815260200190815260200160002060006101000a81548173ffffffffffffffffffffffffffffffffffffffff021916908373ffffffffffffffffffffffffffffffffffffffff160217905550817fd90d82403e43e61a7ad30c62485660c14192543b33afbe4bd5bff0501ab1239a60405160405180910390a2817f24351efe427e252508866c25440a9fbd729b754f0a5d7b525b0dfd726309ad5a60405160405180910390a25050565b6001600760003373ffffffffffffffffffffffffffffffffffffffff1673ffffffffffffffffffffffffffffffffffffffff16815260200190815260200160002060006101000a81548160ff0219169083151502179055503373ffffffffffffffffffffffffffffffffffffffff167fe73107f66e8cace9f50426f7079ebf52a6570366c159f17bc8eefe28e4be253b60405160405180910390a2565b60076020528060005260406000206000915054906101000a900460ff1681565b80600b600082815260200190815260200160002060009054906101000a900473ffffffffffffffffffffffffffffffffffffffff1673ffffffffffffffffffffffffffffffffffffffff163373ffffffffffffffffffffffffffffffffffffffff16146124f2576040517f08c379a00000000000000000000000000000000000000000000000000000000081526004016124e990614244565b60405180910390fd5b600860006009600085815260200190815260200160002060009054906101000a900473ffffffffffffffffffffffffffffffffffffffff1673ffffffffffffffffffffffffffffffffffffffff1673ffffffffffffffffffffffffffffffffffffffff16815260200190815260200160002060009054906101000a900460ff166125b1576040517f08c379a00000000000000000000000000000000000000000000000000000000081526004016125a890614024565b60405180910390fd5b6001600c600084815260200190815260200160002060006101000a81548160ff021916908315150217905550817f24351efe427e252508866c25440a9fbd729b754f0a5d7b525b0dfd726309ad5a60405160405180910390a25050565b6000600560008473ffffffffffffffffffffffffffffffffffffffff1673ffffffffffffffffffffffffffffffffffffffff16815260200190815260200160002060008373ffffffffffffffffffffffffffffffffffffffff1673ffffffffffffffffffffffffffffffffffffffff16815260200190815260200160002060009054906101000a900460ff16905092915050565b60007f01ffc9a7000000000000000000000000000000000000000000000000000000007bffffffffffffffffffffffffffffffffffffffffffffffffffffffff1916827bffffffffffffffffffffffffffffffffffffffffffffffffffffffff1916149050919050565b60008073ffffffffffffffffffffffffffffffffffffffff166002600084815260200190815260200160002060009054906101000a900473ffffffffffffffffffffffffffffffffffffffff1673ffffffffffffffffffffffffffffffffffffffff1614159050919050565b600033905090565b816004600083815260200190815260200160002060006101000a81548173ffffffffffffffffffffffffffffffffffffffff021916908373ffffffffffffffffffffffffffffffffffffffff160217905550808273ffffffffffffffffffffffffffffffffffffffff166127f383610ea2565b73ffffffffffffffffffffffffffffffffffffffff167f8c5be1e5ebec7d5bd14f71427d1e84f3dd0314c0f7b2291e5b200ac8c7c3b92560405160405180910390a45050565b60006128448261270c565b612883576040517f08c379a000000000000000000000000000000000000000000000000000000000815260040161287a906140a4565b60405180910390fd5b600061288e83610ea2565b90508073ffffffffffffffffffffffffffffffffffffffff168473ffffffffffffffffffffffffffffffffffffffff1614806128fd57508373ffffffffffffffffffffffffffffffffffffffff166128e584610a43565b73ffffffffffffffffffffffffffffffffffffffff16145b8061290e575061290d818561260e565b5b91505092915050565b8273ffffffffffffffffffffffffffffffffffffffff1661293782610ea2565b73ffffffffffffffffffffffffffffffffffffffff161461298d576040517f08c379a000000000000000000000000000000000000000000000000000000000815260040161298490614184565b60405180910390fd5b600073ffffffffffffffffffffffffffffffffffffffff168273ffffffffffffffffffffffffffffffffffffffff1614156129fd576040517f08c379a00000000000000000000000000000000000000000000000000000000081526004016129f490614044565b60405180910390fd5b612a08838383613177565b612a13600082612780565b6001600360008573ffffffffffffffffffffffffffffffffffffffff1673ffffffffffffffffffffffffffffffffffffffff1681526020019081526020016000206000828254612a6391906143f8565b925050819055506001600360008473ffffffffffffffffffffffffffffffffffffffff1673ffffffffffffffffffffffffffffffffffffffff1681526020019081526020016000206000828254612aba9190614371565b92505081905550816002600083815260200190815260200160002060006101000a81548173ffffffffffffffffffffffffffffffffffffffff021916908373ffffffffffffffffffffffffffffffffffffffff160217905550808273ffffffffffffffffffffffffffffffffffffffff168473ffffffffffffffffffffffffffffffffffffffff167fddf252ad1be2c89b69c2b068fc378daa952ba7f163c4a11628f55a4df523b3ef60405160405180910390a4505050565b612b8d82826040518060200160405280600081525061317c565b5050565b8173ffffffffffffffffffffffffffffffffffffffff168373ffffffffffffffffffffffffffffffffffffffff161415612c00576040517f08c379a0000000000000000000000000000000000000000000000000000000008152600401612bf790614064565b60405180910390fd5b80600560008573ffffffffffffffffffffffffffffffffffffffff1673ffffffffffffffffffffffffffffffffffffffff16815260200190815260200160002060008473ffffffffffffffffffffffffffffffffffffffff1673ffffffffffffffffffffffffffffffffffffffff16815260200190815260200160002060006101000a81548160ff0219169083151502179055508173ffffffffffffffffffffffffffffffffffffffff168373ffffffffffffffffffffffffffffffffffffffff167f17307eab39ab6107e8899845ad3d59bd9653f200f220920489ca2b5937696c3183604051612cf19190613f67565b60405180910390a3505050565b60005b600e600083815260200190815260200160002080549050811015612f345760006002811115612d59577f4e487b7100000000000000000000000000000000000000000000000000000000600052602160045260246000fd5b600e60008481526020019081526020016000208281548110612da4577f4e487b7100000000000000000000000000000000000000000000000000000000600052603260045260246000fd5b906000526020600020906003020160020160009054906101000a900460ff166002811115612dfb577f4e487b7100000000000000000000000000000000000000000000000000000000600052602160045260246000fd5b1415612f2157600e60008381526020019081526020016000208181548110612e4c577f4e487b7100000000000000000000000000000000000000000000000000000000600052603260045260246000fd5b906000526020600020906003020160000160009054906101000a900473ffffffffffffffffffffffffffffffffffffffff1673ffffffffffffffffffffffffffffffffffffffff166108fc600e60008581526020019081526020016000208381548110612ee2577f4e487b7100000000000000000000000000000000000000000000000000000000600052603260045260246000fd5b9060005260206000209060030201600101549081150290604051600060405180830381858888f19350505050158015612f1f573d6000803e3d6000fd5b505b8080612f2c90614594565b915050612d01565b50600e60008281526020019081526020016000206000612f54919061354f565b50565b612f62848484612917565b612f6e848484846131d7565b612fad576040517f08c379a0000000000000000000000000000000000000000000000000000000008152600401612fa490613fc4565b60405180910390fd5b50505050565b606060405180602001604052806000815250905090565b60606000821415613012576040518060400160405280600181526020017f30000000000000000000000000000000000000000000000000000000000000008152509050613172565b600082905060005b6000821461304457808061302d90614594565b915050600a8261303d91906143c7565b915061301a565b60008167ffffffffffffffff811115613086577f4e487b7100000000000000000000000000000000000000000000000000000000600052604160045260246000fd5b6040519080825280601f01601f1916602001820160405280156130b85781602001600182028036833780820191505090505b5090505b6000851461316b576001826130d191906143f8565b9150600a856130e091906145dd565b60306130ec9190614371565b60f81b818381518110613128577f4e487b7100000000000000000000000000000000000000000000000000000000600052603260045260246000fd5b60200101907effffffffffffffffffffffffffffffffffffffffffffffffffffffffffffff1916908160001a905350600a8561316491906143c7565b94506130bc565b8093505050505b919050565b505050565b613186838361336e565b61319360008484846131d7565b6131d2576040517f08c379a00000000000000000000000000000000000000000000000000000000081526004016131c990613fc4565b60405180910390fd5b505050565b60006131f88473ffffffffffffffffffffffffffffffffffffffff1661353c565b15613361578373ffffffffffffffffffffffffffffffffffffffff1663150b7a02613221612778565b8786866040518563ffffffff1660e01b81526004016132439493929190613ec2565b602060405180830381600087803b15801561325d57600080fd5b505af192505050801561328e57506040513d601f19601f8201168201806040525081019061328b91906138bd565b60015b613311573d80600081146132be576040519150601f19603f3d011682016040523d82523d6000602084013e6132c3565b606091505b50600081511415613309576040517f08c379a000000000000000000000000000000000000000000000000000000000815260040161330090613fc4565b60405180910390fd5b805181602001fd5b63150b7a0260e01b7bffffffffffffffffffffffffffffffffffffffffffffffffffffffff1916817bffffffffffffffffffffffffffffffffffffffffffffffffffffffff191614915050613366565b600190505b949350505050565b600073ffffffffffffffffffffffffffffffffffffffff168273ffffffffffffffffffffffffffffffffffffffff1614156133de576040517f08c379a00000000000000000000000000000000000000000000000000000000081526004016133d590614124565b60405180910390fd5b6133e78161270c565b15613427576040517f08c379a000000000000000000000000000000000000000000000000000000000815260040161341e90613fe4565b60405180910390fd5b61343360008383613177565b6001600360008473ffffffffffffffffffffffffffffffffffffffff1673ffffffffffffffffffffffffffffffffffffffff16815260200190815260200160002060008282546134839190614371565b92505081905550816002600083815260200190815260200160002060006101000a81548173ffffffffffffffffffffffffffffffffffffffff021916908373ffffffffffffffffffffffffffffffffffffffff160217905550808273ffffffffffffffffffffffffffffffffffffffff16600073ffffffffffffffffffffffffffffffffffffffff167fddf252ad1be2c89b69c2b068fc378daa952ba7f163c4a11628f55a4df523b3ef60405160405180910390a45050565b600080823b905060008111915050919050565b50805460008255600302906000526020600020908101906135709190613573565b50565b5b808211156135c957600080820160006101000a81549073ffffffffffffffffffffffffffffffffffffffff021916905560018201600090556002820160006101000a81549060ff021916905550600301613574565b5090565b60006135e06135db846142c4565b61429f565b9050828152602081018484840111156135f857600080fd5b6136038482856144c5565b509392505050565b60008135905061361a81614c95565b92915050565b60008135905061362f81614cac565b92915050565b60008135905061364481614cc3565b92915050565b60008151905061365981614cc3565b92915050565b600082601f83011261367057600080fd5b81356136808482602086016135cd565b91505092915050565b60008135905061369881614cda565b92915050565b6000602082840312156136b057600080fd5b60006136be8482850161360b565b91505092915050565b600080604083850312156136da57600080fd5b60006136e88582860161360b565b92505060206136f98582860161360b565b9150509250929050565b60008060006060848603121561371857600080fd5b60006137268682870161360b565b93505060206137378682870161360b565b925050604061374886828701613689565b9150509250925092565b6000806000806080858703121561376857600080fd5b60006137768782880161360b565b94505060206137878782880161360b565b935050604061379887828801613689565b925050606085013567ffffffffffffffff8111156137b557600080fd5b6137c18782880161365f565b91505092959194509250565b600080604083850312156137e057600080fd5b60006137ee8582860161360b565b92505060206137ff85828601613620565b9150509250929050565b6000806040838503121561381c57600080fd5b600061382a8582860161360b565b925050602061383b85828601613689565b9150509250929050565b60008060006060848603121561385a57600080fd5b60006138688682870161360b565b935050602061387986828701613689565b925050604061388a86828701613689565b9150509250925092565b6000602082840312156138a657600080fd5b60006138b484828501613635565b91505092915050565b6000602082840312156138cf57600080fd5b60006138dd8482850161364a565b91505092915050565b6000602082840312156138f857600080fd5b600061390684828501613689565b91505092915050565b60008060006060848603121561392457600080fd5b600061393286828701613689565b93505060206139438682870161360b565b925050604061395486828701613689565b9150509250925092565b6000806040838503121561397157600080fd5b600061397f85828601613689565b925050602061399085828601613689565b9150509250929050565b60006139a68383613e23565b60608301905092915050565b6139bb8161442c565b82525050565b6139ca8161442c565b82525050565b60006139db82614305565b6139e58185614333565b93506139f0836142f5565b8060005b83811015613a21578151613a08888261399a565b9750613a1383614326565b9250506001810190506139f4565b5085935050505092915050565b613a378161443e565b82525050565b6000613a4882614310565b613a528185614344565b9350613a628185602086016144d4565b613a6b816146f9565b840191505092915050565b613a7f816144b3565b82525050565b613a8e816144b3565b82525050565b6000613a9f8261431b565b613aa98185614355565b9350613ab98185602086016144d4565b613ac2816146f9565b840191505092915050565b6000613ad88261431b565b613ae28185614366565b9350613af28185602086016144d4565b80840191505092915050565b6000613b0b602b83614355565b9150613b168261470a565b604082019050919050565b6000613b2e603283614355565b9150613b3982614759565b604082019050919050565b6000613b51601c83614355565b9150613b5c826147a8565b602082019050919050565b6000613b74600d83614355565b9150613b7f826147d1565b602082019050919050565b6000613b97601683614355565b9150613ba2826147fa565b602082019050919050565b6000613bba602483614355565b9150613bc582614823565b604082019050919050565b6000613bdd601983614355565b9150613be882614872565b602082019050919050565b6000613c00601a83614355565b9150613c0b8261489b565b602082019050919050565b6000613c23602c83614355565b9150613c2e826148c4565b604082019050919050565b6000613c46603883614355565b9150613c5182614913565b604082019050919050565b6000613c69602a83614355565b9150613c7482614962565b604082019050919050565b6000613c8c602983614355565b9150613c97826149b1565b604082019050919050565b6000613caf602083614355565b9150613cba82614a00565b602082019050919050565b6000613cd2602c83614355565b9150613cdd82614a29565b604082019050919050565b6000613cf5601183614355565b9150613d0082614a78565b602082019050919050565b6000613d18602983614355565b9150613d2382614aa1565b604082019050919050565b6000613d3b602f83614355565b9150613d4682614af0565b604082019050919050565b6000613d5e601883614355565b9150613d6982614b3f565b602082019050919050565b6000613d81602183614355565b9150613d8c82614b68565b604082019050919050565b6000613da4601b83614355565b9150613daf82614bb7565b602082019050919050565b6000613dc7603183614355565b9150613dd282614be0565b604082019050919050565b6000613dea601783614355565b9150613df582614c2f565b602082019050919050565b6000613e0d601b83614355565b9150613e1882614c58565b602082019050919050565b606082016000820151613e3960008501826139b2565b506020820151613e4c6020850182613e65565b506040820151613e5f6040850182613a76565b50505050565b613e6e816144a9565b82525050565b613e7d816144a9565b82525050565b6000613e8f8285613acd565b9150613e9b8284613acd565b91508190509392505050565b6000602082019050613ebc60008301846139c1565b92915050565b6000608082019050613ed760008301876139c1565b613ee460208301866139c1565b613ef16040830185613e74565b8181036060830152613f038184613a3d565b905095945050505050565b6000606082019050613f2360008301866139c1565b613f306020830185613e74565b613f3d6040830184613a85565b949350505050565b60006020820190508181036000830152613f5f81846139d0565b905092915050565b6000602082019050613f7c6000830184613a2e565b92915050565b60006020820190508181036000830152613f9c8184613a94565b905092915050565b60006020820190508181036000830152613fbd81613afe565b9050919050565b60006020820190508181036000830152613fdd81613b21565b9050919050565b60006020820190508181036000830152613ffd81613b44565b9050919050565b6000602082019050818103600083015261401d81613b67565b9050919050565b6000602082019050818103600083015261403d81613b8a565b9050919050565b6000602082019050818103600083015261405d81613bad565b9050919050565b6000602082019050818103600083015261407d81613bd0565b9050919050565b6000602082019050818103600083015261409d81613bf3565b9050919050565b600060208201905081810360008301526140bd81613c16565b9050919050565b600060208201905081810360008301526140dd81613c39565b9050919050565b600060208201905081810360008301526140fd81613c5c565b9050919050565b6000602082019050818103600083015261411d81613c7f565b9050919050565b6000602082019050818103600083015261413d81613ca2565b9050919050565b6000602082019050818103600083015261415d81613cc5565b9050919050565b6000602082019050818103600083015261417d81613ce8565b9050919050565b6000602082019050818103600083015261419d81613d0b565b9050919050565b600060208201905081810360008301526141bd81613d2e565b9050919050565b600060208201905081810360008301526141dd81613d51565b9050919050565b600060208201905081810360008301526141fd81613d74565b9050919050565b6000602082019050818103600083015261421d81613d97565b9050919050565b6000602082019050818103600083015261423d81613dba565b9050919050565b6000602082019050818103600083015261425d81613ddd565b9050919050565b6000602082019050818103600083015261427d81613e00565b9050919050565b60006020820190506142996000830184613e74565b92915050565b60006142a96142ba565b90506142b58282614563565b919050565b6000604051905090565b600067ffffffffffffffff8211156142df576142de6146ca565b5b6142e8826146f9565b9050602081019050919050565b6000819050602082019050919050565b600081519050919050565b600081519050919050565b600081519050919050565b6000602082019050919050565b600082825260208201905092915050565b600082825260208201905092915050565b600082825260208201905092915050565b600081905092915050565b600061437c826144a9565b9150614387836144a9565b9250827fffffffffffffffffffffffffffffffffffffffffffffffffffffffffffffffff038211156143bc576143bb61460e565b5b828201905092915050565b60006143d2826144a9565b91506143dd836144a9565b9250826143ed576143ec61463d565b5b828204905092915050565b6000614403826144a9565b915061440e836144a9565b9250828210156144215761442061460e565b5b828203905092915050565b600061443782614489565b9050919050565b60008115159050919050565b60007fffffffff0000000000000000000000000000000000000000000000000000000082169050919050565b600081905061448482614c81565b919050565b600073ffffffffffffffffffffffffffffffffffffffff82169050919050565b6000819050919050565b60006144be82614476565b9050919050565b82818337600083830152505050565b60005b838110156144f25780820151818401526020810190506144d7565b83811115614501576000848401525b50505050565b6000614512826144a9565b915060008214156145265761452561460e565b5b600182039050919050565b6000600282049050600182168061454957607f821691505b6020821081141561455d5761455c61469b565b5b50919050565b61456c826146f9565b810181811067ffffffffffffffff8211171561458b5761458a6146ca565b5b80604052505050565b600061459f826144a9565b91507fffffffffffffffffffffffffffffffffffffffffffffffffffffffffffffffff8214156145d2576145d161460e565b5b600182019050919050565b60006145e8826144a9565b91506145f3836144a9565b9250826146035761460261463d565b5b828206905092915050565b7f4e487b7100000000000000000000000000000000000000000000000000000000600052601160045260246000fd5b7f4e487b7100000000000000000000000000000000000000000000000000000000600052601260045260246000fd5b7f4e487b7100000000000000000000000000000000000000000000000000000000600052602160045260246000fd5b7f4e487b7100000000000000000000000000000000000000000000000000000000600052602260045260246000fd5b7f4e487b7100000000000000000000000000000000000000000000000000000000600052604160045260246000fd5b6000601f19601f8301169050919050565b7f4f6e6c7920636f6e7472616374206f776e65722063616e2063616c6c2074686960008201527f732066756e6374696f6e2e000000000000000000000000000000000000000000602082015250565b7f4552433732313a207472616e7366657220746f206e6f6e20455243373231526560008201527f63656976657220696d706c656d656e7465720000000000000000000000000000602082015250565b7f4552433732313a20746f6b656e20616c7265616479206d696e74656400000000600082015250565b7f426964206e6f7420666f756e6400000000000000000000000000000000000000600082015250565b7f506c61796572206e6f7420726567697374657265642e00000000000000000000600082015250565b7f4552433732313a207472616e7366657220746f20746865207a65726f2061646460008201527f7265737300000000000000000000000000000000000000000000000000000000602082015250565b7f4552433732313a20617070726f766520746f2063616c6c657200000000000000600082015250565b7f506c6179657220616c726561647920726567697374657265642e000000000000600082015250565b7f4552433732313a206f70657261746f7220717565727920666f72206e6f6e657860008201527f697374656e7420746f6b656e0000000000000000000000000000000000000000602082015250565b7f4552433732313a20617070726f76652063616c6c6572206973206e6f74206f7760008201527f6e6572206e6f7220617070726f76656420666f7220616c6c0000000000000000602082015250565b7f4552433732313a2062616c616e636520717565727920666f7220746865207a6560008201527f726f206164647265737300000000000000000000000000000000000000000000602082015250565b7f4552433732313a206f776e657220717565727920666f72206e6f6e657869737460008201527f656e7420746f6b656e0000000000000000000000000000000000000000000000602082015250565b7f4552433732313a206d696e7420746f20746865207a65726f2061646472657373600082015250565b7f4552433732313a20617070726f76656420717565727920666f72206e6f6e657860008201527f697374656e7420746f6b656e0000000000000000000000000000000000000000602082015250565b7f4b657920616c7265616479206578697374000000000000000000000000000000600082015250565b7f4552433732313a207472616e73666572206f6620746f6b656e2074686174206960008201527f73206e6f74206f776e0000000000000000000000000000000000000000000000602082015250565b7f4552433732314d657461646174613a2055524920717565727920666f72206e6f60008201527f6e6578697374656e7420746f6b656e0000000000000000000000000000000000602082015250565b7f204e6f742061207265676973746572656420706c617965720000000000000000600082015250565b7f4552433732313a20617070726f76616c20746f2063757272656e74206f776e6560008201527f7200000000000000000000000000000000000000000000000000000000000000602082015250565b7f5468697320706c61796572206973206e6f74206f6e2073616c652e0000000000600082015250565b7f4552433732313a207472616e736665722063616c6c6572206973206e6f74206f60008201527f776e6572206e6f7220617070726f766564000000000000000000000000000000602082015250565b7f4e6f74206f776e6572206f662074686520706c61796572000000000000000000600082015250565b7f506c61796572206f776e65722063616e7420706c616365206269640000000000600082015250565b60038110614c9257614c9161466c565b5b50565b614c9e8161442c565b8114614ca957600080fd5b50565b614cb58161443e565b8114614cc057600080fd5b50565b614ccc8161444a565b8114614cd757600080fd5b50565b614ce3816144a9565b8114614cee57600080fd5b5056fea2646970667358221220a9bd4fc956ea40ef37c6ae949ace7d5ea4c29a28a6e13a58d4e6f8e7e3c6c74064736f6c63430008010033",
  "immutableReferences": {},
  "source": "// SPDX-License-Identifier: MIT\npragma solidity ^0.8.0;\n\nimport \"@openzeppelin/contracts/token/ERC721/ERC721.sol\";\n\ncontract PlayerAuction is ERC721 {\n\nenum BidState {Bidded, Accepted, Rejected}\n\nevent ClubRegistered(address indexed club);\nevent PlayerRegistered(address indexed player, uint256 indexed playerId);\nevent PlayerUnregistered(address indexed player);\nevent PlayerPutOnSale(uint256 indexed playerId);\nevent playerOwnershipTransfered(uint256 indexed playerId);\nevent BidPlaced(address indexed bidder, uint256 indexed playerId, uint256 amount);\nevent BidAccepted(address indexed seller, address indexed buyer, uint256 indexed playerId, uint256 amount);\nevent BidRejected(address indexed buyer, uint256 indexed playerId, uint256 amount);\n\n\n\naddress public owner;\nmapping(address => bool) public registeredClubs;\nmapping(address => bool) public registeredPlayers;\nmapping(uint256 => address) public playerAddress;\nmapping(uint256 => uint256) public playerPrices;\nmapping(uint256 => address) public playerOwners;\nmapping(uint256 => bool) public playerOnSale;\nmapping(uint256 => bool) public playerTransferred;\nmapping(uint256 => Bid[]) public bids;\nuint256 public numPlayers;\n\nstruct Bid {\n    address bidder;\n    uint256 amount;\n    BidState bidStatus; \n}\n\nconstructor() ERC721(\"Soccer Player\", \"SP\") {\n    owner = msg.sender;\n}\n\n\n\nmodifier onlyOwner() {\n    require(msg.sender == owner, \"Only contract owner can call this function.\");\n    _;\n}\n\nmodifier onlyClub() {\n    require(registeredClubs[msg.sender], \"Only registered clubs can call this function.\");\n    _;\n}\n\nmodifier onlyPlayer() {\n    require(registeredPlayers[msg.sender], \"Only registered players can call this function.\");\n    _;\n}\n\nmodifier onlyPlayerOnSale(uint256 playerId) {\n    require(playerOnSale[playerId], \"This player is not on sale.\");\n    _;\n}\n\nmodifier onlyOwnerOf(uint256 playerId) {\n    require(msg.sender == playerOwners[playerId], \"Not owner of the player\");\n    _;\n}\n\nfunction registerClub() external {\n    registeredClubs[msg.sender] = true;\n    emit ClubRegistered(msg.sender);\n}\n\nfunction registerPlayer(address playerAdd, uint256 playerId) external  {\n    require(!registeredPlayers[playerAdd], \"Player already registered.\");\n    require(playerAddress[playerId] == address(0), \"Key already exist\");\n    registeredPlayers[playerAdd] = true;\n    numPlayers++;\n    playerAddress[playerId] = playerAdd;\n    playerOwners[playerId] = msg.sender;\n    _safeMint(msg.sender, playerId);\n    playerOnSale[playerId] = true;\n    emit PlayerRegistered(playerAdd, playerId);\n    emit PlayerPutOnSale(playerId);\n}\n\nfunction unRegisterPlayer(address player) external onlyOwner  {\n    require(registeredPlayers[player] ,\" Not a registered player\");\n    numPlayers--;\n    registeredPlayers[player] = false;\n    emit PlayerUnregistered(player);\n}\n\nfunction putPlayerOnSale(uint256 playerId) external onlyOwnerOf(playerId)  {\n    require(registeredPlayers[playerAddress[playerId]], \"Player not registered.\");\n    playerOnSale[playerId] = true;\n    emit PlayerPutOnSale(playerId);\n}\n\nfunction placeBid(uint256 playerId) external payable onlyPlayerOnSale(playerId) {\n    require(msg.sender != playerOwners[playerId], \"Player owner cant place bid\");\n    bids[playerId].push(Bid(msg.sender, msg.value, BidState.Bidded));\n    emit BidPlaced(msg.sender, playerId,  msg.value);\n}\n\nfunction acceptBid(uint256 playerId, address buyer, uint256 amount) external  onlyPlayerOnSale(playerId) onlyOwnerOf(playerId) {\n    address payable buyerAdd = payable(address(buyer));\n    address seller = msg.sender;\n    uint256 bidIndex = findBidIndex(buyer, playerId, amount);\n    bids[playerId][bidIndex].bidStatus = BidState.Accepted;\n    transferFrom(playerOwners[playerId], buyerAdd, playerId);\n    if(amount != 0) {\n     payable(seller).transfer(amount);\n    }\n    playerOwners[playerId] = buyerAdd;\n    playerOnSale[playerId] = false;\n    sendRefundtoAddresses(playerId);\n    emit BidAccepted(seller, buyer, playerId,  amount);\n\n}\n\nfunction rejectBid(uint256 playerId, address buyer, uint256 amount) external onlyPlayerOnSale(playerId) onlyOwnerOf(playerId) {\n    uint256 bidIndex = findBidIndex(buyer, playerId, amount);\n    bids[playerId][bidIndex].bidStatus = BidState.Rejected;\n    payable(bids[playerId][bidIndex].bidder).transfer(amount);\n    emit BidRejected( buyer, playerId,  amount);\n\n}   \n\n\nfunction findBidIndex(address bidder, uint256 playerId, uint256 amt) public view returns (uint256) {\n    Bid[] storage bidList = bids[playerId];\n    for (uint256 i = 0; i < bidList.length; i++) {\n        if (bidList[i].bidder == bidder && bidList[i].amount == amt) {\n            return i;\n        }\n    }\n    revert(\"Bid not found\");\n}\n\n\nfunction transferOwnership(uint256 playerId) external onlyOwnerOf(playerId) {\n    transferFrom(playerOwners[playerId], playerAddress[playerId], playerId);\n    playerOnSale[playerId] = true;\n    playerOwners[playerId] = playerAddress[playerId];\n    emit playerOwnershipTransfered(playerId);\n    emit PlayerPutOnSale(playerId);\n\n}\n\n\n\n    function sendRefundtoAddresses(uint256 playerId) internal {\n        for (uint i = 0; i < bids[playerId].length; i++) {\n            if( bids[playerId][i].bidStatus == BidState.Bidded)\n            payable(bids[playerId][i].bidder).transfer(bids[playerId][i].amount);\n        }\n        delete bids[playerId];\n    }\n\n\n    function getPlayerOwner(uint256 playerId) external view returns (address) {\n        return playerOwners[playerId];\n    }\n\n    function getAllBids(uint256 playerId) public view returns (Bid[] memory) {\n        return bids[playerId];\n    }\n    \n    \n   \n\n    \n}\n",
  "sourcePath": "/Users/sanjaybalasubramanian/Desktop/soccer-player-transfer/soccer-transfer-market-contract/contracts/PlayerAuction.sol",
  "compiler": {
    "name": "solc",
    "version": "0.8.1+commit.df193b15.Emscripten.clang"
  },
  "schemaVersion": "3.4.13",
  "updatedAt": "2023-05-07T21:00:14.686Z",
  "networkType": "ethereum",
  "devdoc": {
    "kind": "dev",
    "methods": {
      "approve(address,uint256)": {
        "details": "See {IERC721-approve}."
      },
      "balanceOf(address)": {
        "details": "See {IERC721-balanceOf}."
      },
      "getApproved(uint256)": {
        "details": "See {IERC721-getApproved}."
      },
      "isApprovedForAll(address,address)": {
        "details": "See {IERC721-isApprovedForAll}."
      },
      "name()": {
        "details": "See {IERC721Metadata-name}."
      },
      "ownerOf(uint256)": {
        "details": "See {IERC721-ownerOf}."
      },
      "safeTransferFrom(address,address,uint256)": {
        "details": "See {IERC721-safeTransferFrom}."
      },
      "safeTransferFrom(address,address,uint256,bytes)": {
        "details": "See {IERC721-safeTransferFrom}."
      },
      "setApprovalForAll(address,bool)": {
        "details": "See {IERC721-setApprovalForAll}."
      },
      "supportsInterface(bytes4)": {
        "details": "See {IERC165-supportsInterface}."
      },
      "symbol()": {
        "details": "See {IERC721Metadata-symbol}."
      },
      "tokenURI(uint256)": {
        "details": "See {IERC721Metadata-tokenURI}."
      },
      "transferFrom(address,address,uint256)": {
        "details": "See {IERC721-transferFrom}."
      }
    },
    "version": 1
  },
  "userdoc": {
    "kind": "user",
    "methods": {},
    "version": 1
  }
}